{
  "contractName": "ConsumerRole",
  "abi": [
    {
      "inputs": [],
      "name": "OrderId",
      "outputs": [
        {
          "internalType": "uint256",
          "name": "",
          "type": "uint256"
        }
      ],
      "stateMutability": "view",
      "type": "function"
    },
    {
      "inputs": [
        {
          "internalType": "uint256",
          "name": "",
          "type": "uint256"
        }
      ],
      "name": "Orders",
      "outputs": [
        {
          "internalType": "uint256",
          "name": "id",
          "type": "uint256"
        },
        {
          "internalType": "address",
          "name": "pharmacyAddress",
          "type": "address"
        },
        {
          "internalType": "uint256",
          "name": "amount",
          "type": "uint256"
        },
        {
          "internalType": "bool",
          "name": "supplied",
          "type": "bool"
        },
        {
          "internalType": "uint256",
          "name": "orderTime",
          "type": "uint256"
        },
        {
          "internalType": "uint256",
          "name": "supplyTime",
          "type": "uint256"
        }
      ],
      "stateMutability": "view",
      "type": "function"
    },
    {
      "inputs": [
        {
          "internalType": "address",
          "name": "_pharmacyAddress",
          "type": "address"
        },
        {
          "internalType": "uint256",
          "name": "_amount",
          "type": "uint256"
        },
        {
          "internalType": "uint256",
          "name": "_orderTime",
          "type": "uint256"
        }
      ],
      "name": "addOrder",
      "outputs": [],
      "stateMutability": "nonpayable",
      "type": "function"
    },
    {
      "inputs": [],
      "name": "externalQCACAddress",
      "outputs": [
        {
          "internalType": "address",
          "name": "",
          "type": "address"
        }
      ],
      "stateMutability": "view",
      "type": "function"
    },
    {
      "inputs": [],
      "name": "getMedicine",
      "outputs": [
        {
          "internalType": "uint256",
          "name": "",
          "type": "uint256"
        },
        {
          "internalType": "uint256",
          "name": "",
          "type": "uint256"
        },
        {
          "internalType": "string",
          "name": "",
          "type": "string"
        },
        {
          "internalType": "string",
          "name": "",
          "type": "string"
        },
        {
          "internalType": "bool",
          "name": "",
          "type": "bool"
        },
        {
          "internalType": "uint256",
          "name": "",
          "type": "uint256"
        },
        {
          "internalType": "bool",
          "name": "",
          "type": "bool"
        },
        {
          "internalType": "uint256",
          "name": "",
          "type": "uint256"
        },
        {
          "internalType": "bool",
          "name": "",
          "type": "bool"
        },
        {
          "internalType": "uint256",
          "name": "",
          "type": "uint256"
        },
        {
          "internalType": "bool",
          "name": "",
          "type": "bool"
        },
        {
          "internalType": "uint256",
          "name": "",
          "type": "uint256"
        }
      ],
      "stateMutability": "view",
      "type": "function"
    },
    {
      "inputs": [],
      "name": "getOrderId",
      "outputs": [
        {
          "internalType": "uint256",
          "name": "",
          "type": "uint256"
        }
      ],
      "stateMutability": "view",
      "type": "function"
    },
    {
      "inputs": [],
      "name": "healthDepartmentAddress",
      "outputs": [
        {
          "internalType": "address",
          "name": "",
          "type": "address"
        }
      ],
      "stateMutability": "view",
      "type": "function"
    },
    {
      "inputs": [],
      "name": "internalQCQAAddress",
      "outputs": [
        {
          "internalType": "address",
          "name": "",
          "type": "address"
        }
      ],
      "stateMutability": "view",
      "type": "function"
    },
    {
      "inputs": [],
      "name": "medicine",
      "outputs": [
        {
          "internalType": "uint256",
          "name": "id",
          "type": "uint256"
        },
        {
          "internalType": "uint256",
          "name": "price",
          "type": "uint256"
        },
        {
          "internalType": "string",
          "name": "name",
          "type": "string"
        },
        {
          "internalType": "string",
          "name": "infomation",
          "type": "string"
        },
        {
          "internalType": "bool",
          "name": "developed",
          "type": "bool"
        },
        {
          "internalType": "uint256",
          "name": "developedTime",
          "type": "uint256"
        },
        {
          "internalType": "bool",
          "name": "internalQCQA",
          "type": "bool"
        },
        {
          "internalType": "uint256",
          "name": "internalQCQATime",
          "type": "uint256"
        },
        {
          "internalType": "bool",
          "name": "externalQCQA",
          "type": "bool"
        },
        {
          "internalType": "uint256",
          "name": "externalQCQATime",
          "type": "uint256"
        },
        {
          "internalType": "bool",
          "name": "approved",
          "type": "bool"
        },
        {
          "internalType": "uint256",
          "name": "approvedTime",
          "type": "uint256"
        }
      ],
      "stateMutability": "view",
      "type": "function"
    },
    {
      "inputs": [],
      "name": "pharmaceuticalCompanyAddress",
      "outputs": [
        {
          "internalType": "address",
          "name": "",
          "type": "address"
        }
      ],
      "stateMutability": "view",
      "type": "function"
    },
    {
      "inputs": [
        {
          "internalType": "address",
          "name": "_externalQCACAddress",
          "type": "address"
        }
      ],
      "name": "setExternalQCQA",
      "outputs": [],
      "stateMutability": "nonpayable",
      "type": "function"
    },
    {
      "inputs": [
        {
          "internalType": "address",
          "name": "_healthDepartmentAddress",
          "type": "address"
        }
      ],
      "name": "setHealthDepartment",
      "outputs": [],
      "stateMutability": "nonpayable",
      "type": "function"
    },
    {
      "inputs": [
        {
          "internalType": "address",
          "name": "_internalQCQAAddress",
          "type": "address"
        }
      ],
      "name": "setInternalQCQA",
      "outputs": [],
      "stateMutability": "nonpayable",
      "type": "function"
    },
    {
      "inputs": [
        {
          "internalType": "uint256",
          "name": "_id",
          "type": "uint256"
        },
        {
          "internalType": "uint256",
          "name": "_price",
          "type": "uint256"
        },
        {
          "internalType": "string",
          "name": "_name",
          "type": "string"
        },
        {
          "internalType": "string",
          "name": "_infomation",
          "type": "string"
        },
        {
          "internalType": "bool",
          "name": "_developed",
          "type": "bool"
        },
        {
          "internalType": "uint256",
          "name": "_developedTime",
          "type": "uint256"
        },
        {
          "internalType": "bool",
          "name": "_internalQCQA",
          "type": "bool"
        },
        {
          "internalType": "uint256",
          "name": "_internalQCQATime",
          "type": "uint256"
        },
        {
          "internalType": "bool",
          "name": "_externalQCQA",
          "type": "bool"
        },
        {
          "internalType": "uint256",
          "name": "_externalQCQATime",
          "type": "uint256"
        },
        {
          "internalType": "bool",
          "name": "_approved",
          "type": "bool"
        },
        {
          "internalType": "uint256",
          "name": "_approvedTime",
          "type": "uint256"
        }
      ],
      "name": "setMedicine",
      "outputs": [],
      "stateMutability": "nonpayable",
      "type": "function"
    },
    {
      "inputs": [
        {
          "internalType": "address",
          "name": "_pharmaceuticalCompanyAddress",
          "type": "address"
        }
      ],
      "name": "setPharmaceuticalCompany",
      "outputs": [],
      "stateMutability": "nonpayable",
      "type": "function"
    },
    {
      "inputs": [
        {
          "internalType": "uint256",
          "name": "_amount",
          "type": "uint256"
        },
        {
          "internalType": "uint256",
          "name": "_orderTime",
          "type": "uint256"
        }
      ],
      "name": "purchaseMedicine",
      "outputs": [],
      "stateMutability": "nonpayable",
      "type": "function"
    }
  ],
  "bytecode": "0x6080604052600060105534801561001557600080fd5b5061117f806100256000396000f3fe608060405234801561001057600080fd5b50600436106100ff5760003560e01c8063a849642611610097578063e11ada6c11610066578063e11ada6c146104e2578063e25de2ab146106a1578063e3cf144e146106e5578063f595c48514610729576100ff565b8063a849642614610424578063b9172c7a14610442578063c49c8aaa14610476578063c91580ba146104aa576100ff565b806360b43029116100d357806360b4302914610311578063697bc1f31461032f578063802dba9f146103735780638fb326f2146103a7576100ff565b806258b5e414610104578063194d2fe214610148578063284f2d58146101a05780634ba057cd146102dd575b600080fd5b6101466004803603602081101561011a57600080fd5b81019080803573ffffffffffffffffffffffffffffffffffffffff169060200190929190505050610866565b005b61019e6004803603606081101561015e57600080fd5b81019080803573ffffffffffffffffffffffffffffffffffffffff16906020019092919080359060200190929190803590602001909291905050506108aa565b005b6101a86109b1565b604051808d81526020018c815260200180602001806020018b151581526020018a815260200189151581526020018881526020018715158152602001868152602001851515815260200184815260200183810383528d818151815260200191508051906020019080838360005b83811015610230578082015181840152602081019050610215565b50505050905090810190601f16801561025d5780820380516001836020036101000a031916815260200191505b5083810382528c818151815260200191508051906020019080838360005b8381101561029657808201518184015260208101905061027b565b50505050905090810190601f1680156102c35780820380516001836020036101000a031916815260200191505b509e50505050505050505050505050505060405180910390f35b6102e5610b63565b604051808273ffffffffffffffffffffffffffffffffffffffff16815260200191505060405180910390f35b610319610b89565b6040518082815260200191505060405180910390f35b6103716004803603602081101561034557600080fd5b81019080803573ffffffffffffffffffffffffffffffffffffffff169060200190929190505050610b8f565b005b61037b610bd3565b604051808273ffffffffffffffffffffffffffffffffffffffff16815260200191505060405180910390f35b6103d3600480360360208110156103bd57600080fd5b8101908080359060200190929190505050610bf9565b604051808781526020018673ffffffffffffffffffffffffffffffffffffffff1681526020018581526020018415158152602001838152602001828152602001965050505050505060405180910390f35b61042c610c62565b6040518082815260200191505060405180910390f35b61044a610c6c565b604051808273ffffffffffffffffffffffffffffffffffffffff16815260200191505060405180910390f35b61047e610c92565b604051808273ffffffffffffffffffffffffffffffffffffffff16815260200191505060405180910390f35b6104e0600480360360408110156104c057600080fd5b810190808035906020019092919080359060200190929190505050610cb8565b005b61069f60048036036101808110156104f957600080fd5b8101908080359060200190929190803590602001909291908035906020019064010000000081111561052a57600080fd5b82018360208201111561053c57600080fd5b8035906020019184600183028401116401000000008311171561055e57600080fd5b91908080601f016020809104026020016040519081016040528093929190818152602001838380828437600081840152601f19601f820116905080830192505050505050509192919290803590602001906401000000008111156105c157600080fd5b8201836020820111156105d357600080fd5b803590602001918460018302840111640100000000831117156105f557600080fd5b91908080601f016020809104026020016040519081016040528093929190818152602001838380828437600081840152601f19601f82011690508083019250505050505050919291929080351515906020019092919080359060200190929190803515159060200190929190803590602001909291908035151590602001909291908035906020019092919080351515906020019092919080359060200190929190505050610cc7565b005b6106e3600480360360208110156106b757600080fd5b81019080803573ffffffffffffffffffffffffffffffffffffffff169060200190929190505050610e2d565b005b610727600480360360208110156106fb57600080fd5b81019080803573ffffffffffffffffffffffffffffffffffffffff169060200190929190505050610e71565b005b610731610eb5565b604051808d81526020018c815260200180602001806020018b151581526020018a815260200189151581526020018881526020018715158152602001868152602001851515815260200184815260200183810383528d818151815260200191508051906020019080838360005b838110156107b957808201518184015260208101905061079e565b50505050905090810190601f1680156107e65780820380516001836020036101000a031916815260200191505b5083810382528c818151815260200191508051906020019080838360005b8381101561081f578082015181840152602081019050610804565b50505050905090810190601f16801561084c5780820380516001836020036101000a031916815260200191505b509e50505050505050505050505050505060405180910390f35b80600d60006101000a81548173ffffffffffffffffffffffffffffffffffffffff021916908373ffffffffffffffffffffffffffffffffffffffff16021790555050565b6040518060c0016040528060105481526020018473ffffffffffffffffffffffffffffffffffffffff16815260200183815260200160001515815260200182815260200160008152506011600060105481526020019081526020016000206000820151816000015560208201518160010160006101000a81548173ffffffffffffffffffffffffffffffffffffffff021916908373ffffffffffffffffffffffffffffffffffffffff1602179055506040820151816002015560608201518160030160006101000a81548160ff0219169083151502179055506080820151816004015560a08201518160050155905050601060008154809291906001019190505550505050565b6000806000015490806001015490806002018054600181600116156101000203166002900480601f016020809104026020016040519081016040528092919081815260200182805460018160011615610100020316600290048015610a575780601f10610a2c57610100808354040283529160200191610a57565b820191906000526020600020905b815481529060010190602001808311610a3a57829003601f168201915b505050505090806003018054600181600116156101000203166002900480601f016020809104026020016040519081016040528092919081815260200182805460018160011615610100020316600290048015610af55780601f10610aca57610100808354040283529160200191610af5565b820191906000526020600020905b815481529060010190602001808311610ad857829003601f168201915b5050505050908060040160009054906101000a900460ff16908060050154908060060160009054906101000a900460ff16908060070154908060080160009054906101000a900460ff169080600901549080600a0160009054906101000a900460ff169080600b015490508c565b600e60009054906101000a900473ffffffffffffffffffffffffffffffffffffffff1681565b60105481565b80600c60006101000a81548173ffffffffffffffffffffffffffffffffffffffff021916908373ffffffffffffffffffffffffffffffffffffffff16021790555050565b600f60009054906101000a900473ffffffffffffffffffffffffffffffffffffffff1681565b60116020528060005260406000206000915090508060000154908060010160009054906101000a900473ffffffffffffffffffffffffffffffffffffffff16908060020154908060030160009054906101000a900460ff16908060040154908060050154905086565b6000601054905090565b600d60009054906101000a900473ffffffffffffffffffffffffffffffffffffffff1681565b600c60009054906101000a900473ffffffffffffffffffffffffffffffffffffffff1681565b610cc33383836108aa565b5050565b6040518061018001604052808d81526020018c81526020018b81526020018a81526020018915158152602001888152602001871515815260200186815260200185151581526020018481526020018315158152602001828152506000808201518160000155602082015181600101556040820151816002019080519060200190610d5292919061109e565b506060820151816003019080519060200190610d6f92919061109e565b5060808201518160040160006101000a81548160ff02191690831515021790555060a0820151816005015560c08201518160060160006101000a81548160ff02191690831515021790555060e082015181600701556101008201518160080160006101000a81548160ff021916908315150217905550610120820151816009015561014082015181600a0160006101000a81548160ff02191690831515021790555061016082015181600b0155905050505050505050505050505050565b80600f60006101000a81548173ffffffffffffffffffffffffffffffffffffffff021916908373ffffffffffffffffffffffffffffffffffffffff16021790555050565b80600e60006101000a81548173ffffffffffffffffffffffffffffffffffffffff021916908373ffffffffffffffffffffffffffffffffffffffff16021790555050565b600080606080600080600080600080600080600080015460006001015460006002016000600301600060040160009054906101000a900460ff16600060050154600060060160009054906101000a900460ff16600060070154600060080160009054906101000a900460ff166000600901546000600a0160009054906101000a900460ff166000600b0154898054600181600116156101000203166002900480601f016020809104026020016040519081016040528092919081815260200182805460018160011615610100020316600290048015610fd55780601f10610faa57610100808354040283529160200191610fd5565b820191906000526020600020905b815481529060010190602001808311610fb857829003601f168201915b50505050509950888054600181600116156101000203166002900480601f0160208091040260200160405190810160405280929190818152602001828054600181600116156101000203166002900480156110715780601f1061104657610100808354040283529160200191611071565b820191906000526020600020905b81548152906001019060200180831161105457829003601f168201915b505050505098509b509b509b509b509b509b509b509b509b509b509b509b50909192939495969798999a9b565b828054600181600116156101000203166002900490600052602060002090601f0160209004810192826110d4576000855561111b565b82601f106110ed57805160ff191683800117855561111b565b8280016001018555821561111b579182015b8281111561111a5782518255916020019190600101906110ff565b5b509050611128919061112c565b5090565b5b8082111561114557600081600090555060010161112d565b509056fea26469706673582212201d9107eeca745892cf45826e59b789c2042c9be4f32e380799ac9e9141620f9564736f6c63430007060033",
  "immutableReferences": {},
  "source": "// SPDX-License-Identifier: MIT\npragma solidity >=0.4.22 <0.9.0;\nimport \"../object/Order.sol\";\ncontract ConsumerRole is Order{\n    // Pharmacies\n    function purchaseMedicine(uint256 _amount, uint256 _orderTime) public{\n        addOrder(msg.sender, _amount, _orderTime);\n    }\n}",
  "sourcePath": "/Users/yiulapsang/Desktop/workspace/blockchain/medicine-supply-chain/contracts/base/ConsumerRole.sol",
  "compiler": {
    "name": "solc",
    "version": "0.7.6+commit.7338295f.Emscripten.clang"
  },
  "schemaVersion": "3.3.3",
  "updatedAt": "2021-03-17T05:06:11.547Z",
  "devdoc": {
    "kind": "dev",
    "methods": {},
    "version": 1
  },
  "userdoc": {
    "kind": "user",
    "methods": {},
    "version": 1
  }
}