{
  "contractName": "ConsumerRole",
  "abi": [
    {
      "inputs": [],
      "name": "OrderAmount",
      "outputs": [
        {
          "internalType": "uint256",
          "name": "",
          "type": "uint256"
        }
      ],
      "stateMutability": "view",
      "type": "function"
    },
    {
      "inputs": [
        {
          "internalType": "uint256",
          "name": "",
          "type": "uint256"
        }
      ],
      "name": "Orders",
      "outputs": [
        {
          "internalType": "uint256",
          "name": "id",
          "type": "uint256"
        },
        {
          "internalType": "address",
          "name": "pharmacyAddress",
          "type": "address"
        },
        {
          "internalType": "uint256",
          "name": "amount",
          "type": "uint256"
        },
        {
          "internalType": "bool",
          "name": "supplied",
          "type": "bool"
        },
        {
          "internalType": "uint256",
          "name": "orderTime",
          "type": "uint256"
        },
        {
          "internalType": "uint256",
          "name": "supplyTime",
          "type": "uint256"
        },
        {
          "internalType": "string",
          "name": "pharmacyPhysicalAddress",
          "type": "string"
        }
      ],
      "stateMutability": "view",
      "type": "function"
    },
    {
      "inputs": [
        {
          "internalType": "address",
          "name": "_pharmacyAddress",
          "type": "address"
        },
        {
          "internalType": "uint256",
          "name": "_amount",
          "type": "uint256"
        },
        {
          "internalType": "uint256",
          "name": "_orderTime",
          "type": "uint256"
        },
        {
          "internalType": "string",
          "name": "_pharmacyPhysicalAddress",
          "type": "string"
        }
      ],
      "name": "addOrder",
      "outputs": [
        {
          "internalType": "uint256",
          "name": "",
          "type": "uint256"
        }
      ],
      "stateMutability": "nonpayable",
      "type": "function"
    },
    {
      "inputs": [],
      "name": "externalQCACAddress",
      "outputs": [
        {
          "internalType": "address",
          "name": "",
          "type": "address"
        }
      ],
      "stateMutability": "view",
      "type": "function"
    },
    {
      "inputs": [],
      "name": "getMedicine",
      "outputs": [
        {
          "internalType": "uint256",
          "name": "",
          "type": "uint256"
        },
        {
          "internalType": "uint256",
          "name": "",
          "type": "uint256"
        },
        {
          "internalType": "string",
          "name": "",
          "type": "string"
        },
        {
          "internalType": "string",
          "name": "",
          "type": "string"
        },
        {
          "internalType": "bool",
          "name": "",
          "type": "bool"
        },
        {
          "internalType": "uint256",
          "name": "",
          "type": "uint256"
        },
        {
          "internalType": "bool",
          "name": "",
          "type": "bool"
        },
        {
          "internalType": "uint256",
          "name": "",
          "type": "uint256"
        },
        {
          "internalType": "bool",
          "name": "",
          "type": "bool"
        },
        {
          "internalType": "uint256",
          "name": "",
          "type": "uint256"
        },
        {
          "internalType": "bool",
          "name": "",
          "type": "bool"
        },
        {
          "internalType": "uint256",
          "name": "",
          "type": "uint256"
        }
      ],
      "stateMutability": "view",
      "type": "function"
    },
    {
      "inputs": [],
      "name": "healthDepartmentAddress",
      "outputs": [
        {
          "internalType": "address",
          "name": "",
          "type": "address"
        }
      ],
      "stateMutability": "view",
      "type": "function"
    },
    {
      "inputs": [],
      "name": "internalQCQAAddress",
      "outputs": [
        {
          "internalType": "address",
          "name": "",
          "type": "address"
        }
      ],
      "stateMutability": "view",
      "type": "function"
    },
    {
      "inputs": [],
      "name": "medicine",
      "outputs": [
        {
          "internalType": "uint256",
          "name": "id",
          "type": "uint256"
        },
        {
          "internalType": "uint256",
          "name": "price",
          "type": "uint256"
        },
        {
          "internalType": "string",
          "name": "name",
          "type": "string"
        },
        {
          "internalType": "string",
          "name": "infomation",
          "type": "string"
        },
        {
          "internalType": "bool",
          "name": "developed",
          "type": "bool"
        },
        {
          "internalType": "uint256",
          "name": "developedTime",
          "type": "uint256"
        },
        {
          "internalType": "bool",
          "name": "internalQCQA",
          "type": "bool"
        },
        {
          "internalType": "uint256",
          "name": "internalQCQATime",
          "type": "uint256"
        },
        {
          "internalType": "bool",
          "name": "externalQCQA",
          "type": "bool"
        },
        {
          "internalType": "uint256",
          "name": "externalQCQATime",
          "type": "uint256"
        },
        {
          "internalType": "bool",
          "name": "approved",
          "type": "bool"
        },
        {
          "internalType": "uint256",
          "name": "approvedTime",
          "type": "uint256"
        }
      ],
      "stateMutability": "view",
      "type": "function"
    },
    {
      "inputs": [],
      "name": "pharmaceuticalCompanyAddress",
      "outputs": [
        {
          "internalType": "address",
          "name": "",
          "type": "address"
        }
      ],
      "stateMutability": "view",
      "type": "function"
    },
    {
      "inputs": [
        {
          "internalType": "address",
          "name": "_externalQCACAddress",
          "type": "address"
        }
      ],
      "name": "setExternalQCQA",
      "outputs": [],
      "stateMutability": "nonpayable",
      "type": "function"
    },
    {
      "inputs": [
        {
          "internalType": "address",
          "name": "_healthDepartmentAddress",
          "type": "address"
        }
      ],
      "name": "setHealthDepartment",
      "outputs": [],
      "stateMutability": "nonpayable",
      "type": "function"
    },
    {
      "inputs": [
        {
          "internalType": "address",
          "name": "_internalQCQAAddress",
          "type": "address"
        }
      ],
      "name": "setInternalQCQA",
      "outputs": [],
      "stateMutability": "nonpayable",
      "type": "function"
    },
    {
      "inputs": [
        {
          "internalType": "uint256",
          "name": "_id",
          "type": "uint256"
        },
        {
          "internalType": "uint256",
          "name": "_price",
          "type": "uint256"
        },
        {
          "internalType": "string",
          "name": "_name",
          "type": "string"
        },
        {
          "internalType": "string",
          "name": "_infomation",
          "type": "string"
        },
        {
          "internalType": "bool",
          "name": "_developed",
          "type": "bool"
        },
        {
          "internalType": "uint256",
          "name": "_developedTime",
          "type": "uint256"
        },
        {
          "internalType": "bool",
          "name": "_internalQCQA",
          "type": "bool"
        },
        {
          "internalType": "uint256",
          "name": "_internalQCQATime",
          "type": "uint256"
        },
        {
          "internalType": "bool",
          "name": "_externalQCQA",
          "type": "bool"
        },
        {
          "internalType": "uint256",
          "name": "_externalQCQATime",
          "type": "uint256"
        },
        {
          "internalType": "bool",
          "name": "_approved",
          "type": "bool"
        },
        {
          "internalType": "uint256",
          "name": "_approvedTime",
          "type": "uint256"
        }
      ],
      "name": "setMedicine",
      "outputs": [],
      "stateMutability": "nonpayable",
      "type": "function"
    },
    {
      "inputs": [
        {
          "internalType": "address",
          "name": "_pharmaceuticalCompanyAddress",
          "type": "address"
        }
      ],
      "name": "setPharmaceuticalCompany",
      "outputs": [],
      "stateMutability": "nonpayable",
      "type": "function"
    },
    {
      "inputs": [
        {
          "internalType": "uint256",
          "name": "_amount",
          "type": "uint256"
        },
        {
          "internalType": "uint256",
          "name": "_orderTime",
          "type": "uint256"
        },
        {
          "internalType": "string",
          "name": "_pharmacyPhysicalAddress",
          "type": "string"
        }
      ],
      "name": "purchaseMedicine",
      "outputs": [
        {
          "internalType": "uint256",
          "name": "",
          "type": "uint256"
        }
      ],
      "stateMutability": "nonpayable",
      "type": "function"
    }
  ],
  "bytecode": "0x6080604052600060105534801561001557600080fd5b506113e4806100256000396000f3fe608060405234801561001057600080fd5b50600436106100f45760003560e01c80638fb326f211610097578063e11ada6c11610066578063e11ada6c1461067b578063e25de2ab1461083a578063e3cf144e1461087e578063f595c485146108c2576100f4565b80638fb326f21461050c578063913c7447146105f5578063b9172c7a14610613578063c49c8aaa14610647576100f4565b80634ba057cd116100d35780634ba057cd1461035d57806355a3bc2f14610391578063697bc1f314610494578063802dba9f146104d8576100f4565b806258b5e4146100f9578063284f2d581461013d5780633c2e95301461027a575b600080fd5b61013b6004803603602081101561010f57600080fd5b81019080803573ffffffffffffffffffffffffffffffffffffffff1690602001909291905050506109ff565b005b610145610a43565b604051808d81526020018c815260200180602001806020018b151581526020018a815260200189151581526020018881526020018715158152602001868152602001851515815260200184815260200183810383528d818151815260200191508051906020019080838360005b838110156101cd5780820151818401526020810190506101b2565b50505050905090810190601f1680156101fa5780820380516001836020036101000a031916815260200191505b5083810382528c818151815260200191508051906020019080838360005b83811015610233578082015181840152602081019050610218565b50505050905090810190601f1680156102605780820380516001836020036101000a031916815260200191505b509e50505050505050505050505050505060405180910390f35b6103476004803603606081101561029057600080fd5b810190808035906020019092919080359060200190929190803590602001906401000000008111156102c157600080fd5b8201836020820111156102d357600080fd5b803590602001918460018302840111640100000000831117156102f557600080fd5b91908080601f016020809104026020016040519081016040528093929190818152602001838380828437600081840152601f19601f820116905080830192505050505050509192919290505050610bf5565b6040518082815260200191505060405180910390f35b610365610c0c565b604051808273ffffffffffffffffffffffffffffffffffffffff16815260200191505060405180910390f35b61047e600480360360808110156103a757600080fd5b81019080803573ffffffffffffffffffffffffffffffffffffffff1690602001909291908035906020019092919080359060200190929190803590602001906401000000008111156103f857600080fd5b82018360208201111561040a57600080fd5b8035906020019184600183028401116401000000008311171561042c57600080fd5b91908080601f016020809104026020016040519081016040528093929190818152602001838380828437600081840152601f19601f820116905080830192505050505050509192919290505050610c32565b6040518082815260200191505060405180910390f35b6104d6600480360360208110156104aa57600080fd5b81019080803573ffffffffffffffffffffffffffffffffffffffff169060200190929190505050610d69565b005b6104e0610dad565b604051808273ffffffffffffffffffffffffffffffffffffffff16815260200191505060405180910390f35b6105386004803603602081101561052257600080fd5b8101908080359060200190929190505050610dd3565b604051808881526020018773ffffffffffffffffffffffffffffffffffffffff168152602001868152602001851515815260200184815260200183815260200180602001828103825283818151815260200191508051906020019080838360005b838110156105b4578082015181840152602081019050610599565b50505050905090810190601f1680156105e15780820380516001836020036101000a031916815260200191505b509850505050505050505060405180910390f35b6105fd610eda565b6040518082815260200191505060405180910390f35b61061b610ee0565b604051808273ffffffffffffffffffffffffffffffffffffffff16815260200191505060405180910390f35b61064f610f06565b604051808273ffffffffffffffffffffffffffffffffffffffff16815260200191505060405180910390f35b610838600480360361018081101561069257600080fd5b810190808035906020019092919080359060200190929190803590602001906401000000008111156106c357600080fd5b8201836020820111156106d557600080fd5b803590602001918460018302840111640100000000831117156106f757600080fd5b91908080601f016020809104026020016040519081016040528093929190818152602001838380828437600081840152601f19601f8201169050808301925050505050505091929192908035906020019064010000000081111561075a57600080fd5b82018360208201111561076c57600080fd5b8035906020019184600183028401116401000000008311171561078e57600080fd5b91908080601f016020809104026020016040519081016040528093929190818152602001838380828437600081840152601f19601f82011690508083019250505050505050919291929080351515906020019092919080359060200190929190803515159060200190929190803590602001909291908035151590602001909291908035906020019092919080351515906020019092919080359060200190929190505050610f2c565b005b61087c6004803603602081101561085057600080fd5b81019080803573ffffffffffffffffffffffffffffffffffffffff169060200190929190505050611092565b005b6108c06004803603602081101561089457600080fd5b81019080803573ffffffffffffffffffffffffffffffffffffffff1690602001909291905050506110d6565b005b6108ca61111a565b604051808d81526020018c815260200180602001806020018b151581526020018a815260200189151581526020018881526020018715158152602001868152602001851515815260200184815260200183810383528d818151815260200191508051906020019080838360005b83811015610952578082015181840152602081019050610937565b50505050905090810190601f16801561097f5780820380516001836020036101000a031916815260200191505b5083810382528c818151815260200191508051906020019080838360005b838110156109b857808201518184015260208101905061099d565b50505050905090810190601f1680156109e55780820380516001836020036101000a031916815260200191505b509e50505050505050505050505050505060405180910390f35b80600d60006101000a81548173ffffffffffffffffffffffffffffffffffffffff021916908373ffffffffffffffffffffffffffffffffffffffff16021790555050565b6000806000015490806001015490806002018054600181600116156101000203166002900480601f016020809104026020016040519081016040528092919081815260200182805460018160011615610100020316600290048015610ae95780601f10610abe57610100808354040283529160200191610ae9565b820191906000526020600020905b815481529060010190602001808311610acc57829003601f168201915b505050505090806003018054600181600116156101000203166002900480601f016020809104026020016040519081016040528092919081815260200182805460018160011615610100020316600290048015610b875780601f10610b5c57610100808354040283529160200191610b87565b820191906000526020600020905b815481529060010190602001808311610b6a57829003601f168201915b5050505050908060040160009054906101000a900460ff16908060050154908060060160009054906101000a900460ff16908060070154908060080160009054906101000a900460ff169080600901549080600a0160009054906101000a900460ff169080600b015490508c565b6000610c0333858585610c32565b90509392505050565b600e60009054906101000a900473ffffffffffffffffffffffffffffffffffffffff1681565b60006040518060e0016040528060105481526020018673ffffffffffffffffffffffffffffffffffffffff16815260200185815260200160001515815260200184815260200160008152602001838152506011600060105481526020019081526020016000206000820151816000015560208201518160010160006101000a81548173ffffffffffffffffffffffffffffffffffffffff021916908373ffffffffffffffffffffffffffffffffffffffff1602179055506040820151816002015560608201518160030160006101000a81548160ff0219169083151502179055506080820151816004015560a0820151816005015560c0820151816006019080519060200190610d43929190611303565b509050506010600081548092919060010191905055506001601054039050949350505050565b80600c60006101000a81548173ffffffffffffffffffffffffffffffffffffffff021916908373ffffffffffffffffffffffffffffffffffffffff16021790555050565b600f60009054906101000a900473ffffffffffffffffffffffffffffffffffffffff1681565b60116020528060005260406000206000915090508060000154908060010160009054906101000a900473ffffffffffffffffffffffffffffffffffffffff16908060020154908060030160009054906101000a900460ff1690806004015490806005015490806006018054600181600116156101000203166002900480601f016020809104026020016040519081016040528092919081815260200182805460018160011615610100020316600290048015610ed05780601f10610ea557610100808354040283529160200191610ed0565b820191906000526020600020905b815481529060010190602001808311610eb357829003601f168201915b5050505050905087565b60105481565b600d60009054906101000a900473ffffffffffffffffffffffffffffffffffffffff1681565b600c60009054906101000a900473ffffffffffffffffffffffffffffffffffffffff1681565b6040518061018001604052808d81526020018c81526020018b81526020018a81526020018915158152602001888152602001871515815260200186815260200185151581526020018481526020018315158152602001828152506000808201518160000155602082015181600101556040820151816002019080519060200190610fb7929190611303565b506060820151816003019080519060200190610fd4929190611303565b5060808201518160040160006101000a81548160ff02191690831515021790555060a0820151816005015560c08201518160060160006101000a81548160ff02191690831515021790555060e082015181600701556101008201518160080160006101000a81548160ff021916908315150217905550610120820151816009015561014082015181600a0160006101000a81548160ff02191690831515021790555061016082015181600b0155905050505050505050505050505050565b80600f60006101000a81548173ffffffffffffffffffffffffffffffffffffffff021916908373ffffffffffffffffffffffffffffffffffffffff16021790555050565b80600e60006101000a81548173ffffffffffffffffffffffffffffffffffffffff021916908373ffffffffffffffffffffffffffffffffffffffff16021790555050565b600080606080600080600080600080600080600080015460006001015460006002016000600301600060040160009054906101000a900460ff16600060050154600060060160009054906101000a900460ff16600060070154600060080160009054906101000a900460ff166000600901546000600a0160009054906101000a900460ff166000600b0154898054600181600116156101000203166002900480601f01602080910402602001604051908101604052809291908181526020018280546001816001161561010002031660029004801561123a5780601f1061120f5761010080835404028352916020019161123a565b820191906000526020600020905b81548152906001019060200180831161121d57829003601f168201915b50505050509950888054600181600116156101000203166002900480601f0160208091040260200160405190810160405280929190818152602001828054600181600116156101000203166002900480156112d65780601f106112ab576101008083540402835291602001916112d6565b820191906000526020600020905b8154815290600101906020018083116112b957829003601f168201915b505050505098509b509b509b509b509b509b509b509b509b509b509b509b50909192939495969798999a9b565b828054600181600116156101000203166002900490600052602060002090601f0160209004810192826113395760008555611380565b82601f1061135257805160ff1916838001178555611380565b82800160010185558215611380579182015b8281111561137f578251825591602001919060010190611364565b5b50905061138d9190611391565b5090565b5b808211156113aa576000816000905550600101611392565b509056fea264697066735822122041b2e806950186507fb8d56163d82d3942d2f89a046144d94792701c1592f4b164736f6c63430007060033",
  "immutableReferences": {},
  "source": "// SPDX-License-Identifier: MIT\npragma solidity >=0.4.22 <0.9.0;\nimport \"../object/Order.sol\";\ncontract ConsumerRole is Order{\n    // Pharmacies\n    function purchaseMedicine(uint256 _amount, uint256 _orderTime,string memory _pharmacyPhysicalAddress) public returns(uint256){\n        return addOrder(msg.sender, _amount, _orderTime,_pharmacyPhysicalAddress);\n    }\n}",
  "sourcePath": "/Users/yiulapsang/Desktop/workspace/blockchain/medicine-supply-chain/contracts/base/ConsumerRole.sol",
  "compiler": {
    "name": "solc",
    "version": "0.7.6+commit.7338295f.Emscripten.clang"
  },
  "schemaVersion": "3.3.3",
  "updatedAt": "2021-03-26T01:48:00.401Z",
  "devdoc": {
    "kind": "dev",
    "methods": {},
    "version": 1
  },
  "userdoc": {
    "kind": "user",
    "methods": {},
    "version": 1
  }
}