{
  "contractName": "DistributorRole",
  "abi": [
    {
      "inputs": [],
      "name": "OrderAmount",
      "outputs": [
        {
          "internalType": "uint256",
          "name": "",
          "type": "uint256"
        }
      ],
      "stateMutability": "view",
      "type": "function"
    },
    {
      "inputs": [
        {
          "internalType": "uint256",
          "name": "",
          "type": "uint256"
        }
      ],
      "name": "Orders",
      "outputs": [
        {
          "internalType": "uint256",
          "name": "id",
          "type": "uint256"
        },
        {
          "internalType": "address",
          "name": "pharmacyAddress",
          "type": "address"
        },
        {
          "internalType": "uint256",
          "name": "amount",
          "type": "uint256"
        },
        {
          "internalType": "bool",
          "name": "supplied",
          "type": "bool"
        },
        {
          "internalType": "uint256",
          "name": "orderTime",
          "type": "uint256"
        },
        {
          "internalType": "uint256",
          "name": "supplyTime",
          "type": "uint256"
        },
        {
          "internalType": "string",
          "name": "pharmacyPhysicalAddress",
          "type": "string"
        }
      ],
      "stateMutability": "view",
      "type": "function"
    },
    {
      "inputs": [
        {
          "internalType": "address",
          "name": "_pharmacyAddress",
          "type": "address"
        },
        {
          "internalType": "uint256",
          "name": "_amount",
          "type": "uint256"
        },
        {
          "internalType": "uint256",
          "name": "_orderTime",
          "type": "uint256"
        },
        {
          "internalType": "string",
          "name": "_pharmacyPhysicalAddress",
          "type": "string"
        }
      ],
      "name": "addOrder",
      "outputs": [
        {
          "internalType": "uint256",
          "name": "",
          "type": "uint256"
        }
      ],
      "stateMutability": "nonpayable",
      "type": "function"
    },
    {
      "inputs": [],
      "name": "externalQCACAddress",
      "outputs": [
        {
          "internalType": "address",
          "name": "",
          "type": "address"
        }
      ],
      "stateMutability": "view",
      "type": "function"
    },
    {
      "inputs": [],
      "name": "getMedicine",
      "outputs": [
        {
          "internalType": "uint256",
          "name": "",
          "type": "uint256"
        },
        {
          "internalType": "uint256",
          "name": "",
          "type": "uint256"
        },
        {
          "internalType": "string",
          "name": "",
          "type": "string"
        },
        {
          "internalType": "string",
          "name": "",
          "type": "string"
        },
        {
          "internalType": "bool",
          "name": "",
          "type": "bool"
        },
        {
          "internalType": "uint256",
          "name": "",
          "type": "uint256"
        },
        {
          "internalType": "bool",
          "name": "",
          "type": "bool"
        },
        {
          "internalType": "uint256",
          "name": "",
          "type": "uint256"
        },
        {
          "internalType": "bool",
          "name": "",
          "type": "bool"
        },
        {
          "internalType": "uint256",
          "name": "",
          "type": "uint256"
        },
        {
          "internalType": "bool",
          "name": "",
          "type": "bool"
        },
        {
          "internalType": "uint256",
          "name": "",
          "type": "uint256"
        }
      ],
      "stateMutability": "view",
      "type": "function"
    },
    {
      "inputs": [],
      "name": "healthDepartmentAddress",
      "outputs": [
        {
          "internalType": "address",
          "name": "",
          "type": "address"
        }
      ],
      "stateMutability": "view",
      "type": "function"
    },
    {
      "inputs": [],
      "name": "internalQCQAAddress",
      "outputs": [
        {
          "internalType": "address",
          "name": "",
          "type": "address"
        }
      ],
      "stateMutability": "view",
      "type": "function"
    },
    {
      "inputs": [],
      "name": "medicine",
      "outputs": [
        {
          "internalType": "uint256",
          "name": "id",
          "type": "uint256"
        },
        {
          "internalType": "uint256",
          "name": "price",
          "type": "uint256"
        },
        {
          "internalType": "string",
          "name": "name",
          "type": "string"
        },
        {
          "internalType": "string",
          "name": "infomation",
          "type": "string"
        },
        {
          "internalType": "bool",
          "name": "developed",
          "type": "bool"
        },
        {
          "internalType": "uint256",
          "name": "developedTime",
          "type": "uint256"
        },
        {
          "internalType": "bool",
          "name": "internalQCQA",
          "type": "bool"
        },
        {
          "internalType": "uint256",
          "name": "internalQCQATime",
          "type": "uint256"
        },
        {
          "internalType": "bool",
          "name": "externalQCQA",
          "type": "bool"
        },
        {
          "internalType": "uint256",
          "name": "externalQCQATime",
          "type": "uint256"
        },
        {
          "internalType": "bool",
          "name": "approved",
          "type": "bool"
        },
        {
          "internalType": "uint256",
          "name": "approvedTime",
          "type": "uint256"
        }
      ],
      "stateMutability": "view",
      "type": "function"
    },
    {
      "inputs": [],
      "name": "pharmaceuticalCompanyAddress",
      "outputs": [
        {
          "internalType": "address",
          "name": "",
          "type": "address"
        }
      ],
      "stateMutability": "view",
      "type": "function"
    },
    {
      "inputs": [
        {
          "internalType": "address",
          "name": "_externalQCACAddress",
          "type": "address"
        }
      ],
      "name": "setExternalQCQA",
      "outputs": [],
      "stateMutability": "nonpayable",
      "type": "function"
    },
    {
      "inputs": [
        {
          "internalType": "address",
          "name": "_healthDepartmentAddress",
          "type": "address"
        }
      ],
      "name": "setHealthDepartment",
      "outputs": [],
      "stateMutability": "nonpayable",
      "type": "function"
    },
    {
      "inputs": [
        {
          "internalType": "address",
          "name": "_internalQCQAAddress",
          "type": "address"
        }
      ],
      "name": "setInternalQCQA",
      "outputs": [],
      "stateMutability": "nonpayable",
      "type": "function"
    },
    {
      "inputs": [
        {
          "internalType": "uint256",
          "name": "_id",
          "type": "uint256"
        },
        {
          "internalType": "uint256",
          "name": "_price",
          "type": "uint256"
        },
        {
          "internalType": "string",
          "name": "_name",
          "type": "string"
        },
        {
          "internalType": "string",
          "name": "_infomation",
          "type": "string"
        },
        {
          "internalType": "bool",
          "name": "_developed",
          "type": "bool"
        },
        {
          "internalType": "uint256",
          "name": "_developedTime",
          "type": "uint256"
        },
        {
          "internalType": "bool",
          "name": "_internalQCQA",
          "type": "bool"
        },
        {
          "internalType": "uint256",
          "name": "_internalQCQATime",
          "type": "uint256"
        },
        {
          "internalType": "bool",
          "name": "_externalQCQA",
          "type": "bool"
        },
        {
          "internalType": "uint256",
          "name": "_externalQCQATime",
          "type": "uint256"
        },
        {
          "internalType": "bool",
          "name": "_approved",
          "type": "bool"
        },
        {
          "internalType": "uint256",
          "name": "_approvedTime",
          "type": "uint256"
        }
      ],
      "name": "setMedicine",
      "outputs": [],
      "stateMutability": "nonpayable",
      "type": "function"
    },
    {
      "inputs": [
        {
          "internalType": "address",
          "name": "_pharmaceuticalCompanyAddress",
          "type": "address"
        }
      ],
      "name": "setPharmaceuticalCompany",
      "outputs": [],
      "stateMutability": "nonpayable",
      "type": "function"
    },
    {
      "inputs": [
        {
          "internalType": "bool",
          "name": "isPass",
          "type": "bool"
        },
        {
          "internalType": "uint256",
          "name": "_internalQCQATime",
          "type": "uint256"
        }
      ],
      "name": "internalQCQA",
      "outputs": [],
      "stateMutability": "nonpayable",
      "type": "function"
    },
    {
      "inputs": [
        {
          "internalType": "bool",
          "name": "isPass",
          "type": "bool"
        },
        {
          "internalType": "uint256",
          "name": "_externalQCQATime",
          "type": "uint256"
        }
      ],
      "name": "externalQCQA",
      "outputs": [],
      "stateMutability": "nonpayable",
      "type": "function"
    }
  ],
  "bytecode": "0x6080604052600060105534801561001557600080fd5b50611477806100256000396000f3fe608060405234801561001057600080fd5b50600436106100ff5760003560e01c8063b9172c7a11610097578063e11ada6c11610066578063e11ada6c14610617578063e25de2ab146107d6578063e3cf144e1461081a578063f595c4851461085e576100ff565b8063b9172c7a1461053b578063c49c8aaa1461056f578063c789cc54146105a3578063dd936a5c146105dd576100ff565b8063697bc1f3116100d3578063697bc1f3146103bc578063802dba9f146104005780638fb326f214610434578063913c74471461051d576100ff565b806258b5e414610104578063284f2d58146101485780634ba057cd1461028557806355a3bc2f146102b9575b600080fd5b6101466004803603602081101561011a57600080fd5b81019080803573ffffffffffffffffffffffffffffffffffffffff16906020019092919050505061099b565b005b6101506109df565b604051808d81526020018c815260200180602001806020018b151581526020018a815260200189151581526020018881526020018715158152602001868152602001851515815260200184815260200183810383528d818151815260200191508051906020019080838360005b838110156101d85780820151818401526020810190506101bd565b50505050905090810190601f1680156102055780820380516001836020036101000a031916815260200191505b5083810382528c818151815260200191508051906020019080838360005b8381101561023e578082015181840152602081019050610223565b50505050905090810190601f16801561026b5780820380516001836020036101000a031916815260200191505b509e50505050505050505050505050505060405180910390f35b61028d610b91565b604051808273ffffffffffffffffffffffffffffffffffffffff16815260200191505060405180910390f35b6103a6600480360360808110156102cf57600080fd5b81019080803573ffffffffffffffffffffffffffffffffffffffff16906020019092919080359060200190929190803590602001909291908035906020019064010000000081111561032057600080fd5b82018360208201111561033257600080fd5b8035906020019184600183028401116401000000008311171561035457600080fd5b91908080601f016020809104026020016040519081016040528093929190818152602001838380828437600081840152601f19601f820116905080830192505050505050509192919290505050610bb7565b6040518082815260200191505060405180910390f35b6103fe600480360360208110156103d257600080fd5b81019080803573ffffffffffffffffffffffffffffffffffffffff169060200190929190505050610cee565b005b610408610d32565b604051808273ffffffffffffffffffffffffffffffffffffffff16815260200191505060405180910390f35b6104606004803603602081101561044a57600080fd5b8101908080359060200190929190505050610d58565b604051808881526020018773ffffffffffffffffffffffffffffffffffffffff168152602001868152602001851515815260200184815260200183815260200180602001828103825283818151815260200191508051906020019080838360005b838110156104dc5780820151818401526020810190506104c1565b50505050905090810190601f1680156105095780820380516001836020036101000a031916815260200191505b509850505050505050505060405180910390f35b610525610e5f565b6040518082815260200191505060405180910390f35b610543610e65565b604051808273ffffffffffffffffffffffffffffffffffffffff16815260200191505060405180910390f35b610577610e8b565b604051808273ffffffffffffffffffffffffffffffffffffffff16815260200191505060405180910390f35b6105db600480360360408110156105b957600080fd5b8101908080351515906020019092919080359060200190929190505050610eb1565b005b610615600480360360408110156105f357600080fd5b8101908080351515906020019092919080359060200190929190505050610f38565b005b6107d4600480360361018081101561062e57600080fd5b8101908080359060200190929190803590602001909291908035906020019064010000000081111561065f57600080fd5b82018360208201111561067157600080fd5b8035906020019184600183028401116401000000008311171561069357600080fd5b91908080601f016020809104026020016040519081016040528093929190818152602001838380828437600081840152601f19601f820116905080830192505050505050509192919290803590602001906401000000008111156106f657600080fd5b82018360208201111561070857600080fd5b8035906020019184600183028401116401000000008311171561072a57600080fd5b91908080601f016020809104026020016040519081016040528093929190818152602001838380828437600081840152601f19601f82011690508083019250505050505050919291929080351515906020019092919080359060200190929190803515159060200190929190803590602001909291908035151590602001909291908035906020019092919080351515906020019092919080359060200190929190505050610fbf565b005b610818600480360360208110156107ec57600080fd5b81019080803573ffffffffffffffffffffffffffffffffffffffff169060200190929190505050611125565b005b61085c6004803603602081101561083057600080fd5b81019080803573ffffffffffffffffffffffffffffffffffffffff169060200190929190505050611169565b005b6108666111ad565b604051808d81526020018c815260200180602001806020018b151581526020018a815260200189151581526020018881526020018715158152602001868152602001851515815260200184815260200183810383528d818151815260200191508051906020019080838360005b838110156108ee5780820151818401526020810190506108d3565b50505050905090810190601f16801561091b5780820380516001836020036101000a031916815260200191505b5083810382528c818151815260200191508051906020019080838360005b83811015610954578082015181840152602081019050610939565b50505050905090810190601f1680156109815780820380516001836020036101000a031916815260200191505b509e50505050505050505050505050505060405180910390f35b80600d60006101000a81548173ffffffffffffffffffffffffffffffffffffffff021916908373ffffffffffffffffffffffffffffffffffffffff16021790555050565b6000806000015490806001015490806002018054600181600116156101000203166002900480601f016020809104026020016040519081016040528092919081815260200182805460018160011615610100020316600290048015610a855780601f10610a5a57610100808354040283529160200191610a85565b820191906000526020600020905b815481529060010190602001808311610a6857829003601f168201915b505050505090806003018054600181600116156101000203166002900480601f016020809104026020016040519081016040528092919081815260200182805460018160011615610100020316600290048015610b235780601f10610af857610100808354040283529160200191610b23565b820191906000526020600020905b815481529060010190602001808311610b0657829003601f168201915b5050505050908060040160009054906101000a900460ff16908060050154908060060160009054906101000a900460ff16908060070154908060080160009054906101000a900460ff169080600901549080600a0160009054906101000a900460ff169080600b015490508c565b600e60009054906101000a900473ffffffffffffffffffffffffffffffffffffffff1681565b60006040518060e0016040528060105481526020018673ffffffffffffffffffffffffffffffffffffffff16815260200185815260200160001515815260200184815260200160008152602001838152506011600060105481526020019081526020016000206000820151816000015560208201518160010160006101000a81548173ffffffffffffffffffffffffffffffffffffffff021916908373ffffffffffffffffffffffffffffffffffffffff1602179055506040820151816002015560608201518160030160006101000a81548160ff0219169083151502179055506080820151816004015560a0820151816005015560c0820151816006019080519060200190610cc8929190611396565b509050506010600081548092919060010191905055506001601054039050949350505050565b80600c60006101000a81548173ffffffffffffffffffffffffffffffffffffffff021916908373ffffffffffffffffffffffffffffffffffffffff16021790555050565b600f60009054906101000a900473ffffffffffffffffffffffffffffffffffffffff1681565b60116020528060005260406000206000915090508060000154908060010160009054906101000a900473ffffffffffffffffffffffffffffffffffffffff16908060020154908060030160009054906101000a900460ff1690806004015490806005015490806006018054600181600116156101000203166002900480601f016020809104026020016040519081016040528092919081815260200182805460018160011615610100020316600290048015610e555780601f10610e2a57610100808354040283529160200191610e55565b820191906000526020600020905b815481529060010190602001808311610e3857829003601f168201915b5050505050905087565b60105481565b600d60009054906101000a900473ffffffffffffffffffffffffffffffffffffffff1681565b600c60009054906101000a900473ffffffffffffffffffffffffffffffffffffffff1681565b338073ffffffffffffffffffffffffffffffffffffffff16600d60009054906101000a900473ffffffffffffffffffffffffffffffffffffffff1673ffffffffffffffffffffffffffffffffffffffff1614610f0c57600080fd5b82600060060160006101000a81548160ff02191690831515021790555081600060070181905550505050565b338073ffffffffffffffffffffffffffffffffffffffff16600c60009054906101000a900473ffffffffffffffffffffffffffffffffffffffff1673ffffffffffffffffffffffffffffffffffffffff1614610f9357600080fd5b82600060080160006101000a81548160ff02191690831515021790555081600060090181905550505050565b6040518061018001604052808d81526020018c81526020018b81526020018a8152602001891515815260200188815260200187151581526020018681526020018515158152602001848152602001831515815260200182815250600080820151816000015560208201518160010155604082015181600201908051906020019061104a929190611396565b506060820151816003019080519060200190611067929190611396565b5060808201518160040160006101000a81548160ff02191690831515021790555060a0820151816005015560c08201518160060160006101000a81548160ff02191690831515021790555060e082015181600701556101008201518160080160006101000a81548160ff021916908315150217905550610120820151816009015561014082015181600a0160006101000a81548160ff02191690831515021790555061016082015181600b0155905050505050505050505050505050565b80600f60006101000a81548173ffffffffffffffffffffffffffffffffffffffff021916908373ffffffffffffffffffffffffffffffffffffffff16021790555050565b80600e60006101000a81548173ffffffffffffffffffffffffffffffffffffffff021916908373ffffffffffffffffffffffffffffffffffffffff16021790555050565b600080606080600080600080600080600080600080015460006001015460006002016000600301600060040160009054906101000a900460ff16600060050154600060060160009054906101000a900460ff16600060070154600060080160009054906101000a900460ff166000600901546000600a0160009054906101000a900460ff166000600b0154898054600181600116156101000203166002900480601f0160208091040260200160405190810160405280929190818152602001828054600181600116156101000203166002900480156112cd5780601f106112a2576101008083540402835291602001916112cd565b820191906000526020600020905b8154815290600101906020018083116112b057829003601f168201915b50505050509950888054600181600116156101000203166002900480601f0160208091040260200160405190810160405280929190818152602001828054600181600116156101000203166002900480156113695780601f1061133e57610100808354040283529160200191611369565b820191906000526020600020905b81548152906001019060200180831161134c57829003601f168201915b505050505098509b509b509b509b509b509b509b509b509b509b509b509b50909192939495969798999a9b565b828054600181600116156101000203166002900490600052602060002090601f0160209004810192826113cc5760008555611413565b82601f106113e557805160ff1916838001178555611413565b82800160010185558215611413579182015b828111156114125782518255916020019190600101906113f7565b5b5090506114209190611424565b5090565b5b8082111561143d576000816000905550600101611425565b509056fea26469706673582212202f36023322bd87e1d2671e006f0d78d0987a09d6861e7a5b5bb497e1b545529264736f6c63430007060033",
  "immutableReferences": {},
  "source": "// SPDX-License-Identifier: MIT\npragma solidity >=0.4.22 <0.9.0;\nimport \"../object/Order.sol\";\ncontract DistributorRole is  Order{\n    // QCQA\n    function internalQCQA(bool isPass, uint256 _internalQCQATime) public isInternalQCQAAddress(msg.sender){\n        medicine.internalQCQA = isPass;\n        medicine.internalQCQATime = _internalQCQATime;\n    }\n    function externalQCQA(bool isPass, uint256 _externalQCQATime) public isExternalQCACAddress(msg.sender){\n        medicine.externalQCQA = isPass;\n        medicine.externalQCQATime = _externalQCQATime;\n    }\n} ",
  "sourcePath": "/Users/yiulapsang/Desktop/workspace/blockchain/medicine-supply-chain/contracts/base/DistributorRole.sol",
  "compiler": {
    "name": "solc",
    "version": "0.7.6+commit.7338295f.Emscripten.clang"
  },
  "schemaVersion": "3.3.3",
  "updatedAt": "2021-03-26T01:48:00.416Z",
  "devdoc": {
    "kind": "dev",
    "methods": {},
    "version": 1
  },
  "userdoc": {
    "kind": "user",
    "methods": {},
    "version": 1
  }
}