{
  "contractName": "Order",
  "abi": [
    {
      "inputs": [],
      "name": "OrderAmount",
      "outputs": [
        {
          "internalType": "uint256",
          "name": "",
          "type": "uint256"
        }
      ],
      "stateMutability": "view",
      "type": "function"
    },
    {
      "inputs": [
        {
          "internalType": "uint256",
          "name": "",
          "type": "uint256"
        }
      ],
      "name": "Orders",
      "outputs": [
        {
          "internalType": "uint256",
          "name": "id",
          "type": "uint256"
        },
        {
          "internalType": "address",
          "name": "pharmacyAddress",
          "type": "address"
        },
        {
          "internalType": "uint256",
          "name": "amount",
          "type": "uint256"
        },
        {
          "internalType": "bool",
          "name": "supplied",
          "type": "bool"
        },
        {
          "internalType": "uint256",
          "name": "orderTime",
          "type": "uint256"
        },
        {
          "internalType": "uint256",
          "name": "supplyTime",
          "type": "uint256"
        },
        {
          "internalType": "string",
          "name": "pharmacyPhysicalAddress",
          "type": "string"
        }
      ],
      "stateMutability": "view",
      "type": "function"
    },
    {
      "inputs": [],
      "name": "externalQCACAddress",
      "outputs": [
        {
          "internalType": "address",
          "name": "",
          "type": "address"
        }
      ],
      "stateMutability": "view",
      "type": "function"
    },
    {
      "inputs": [],
      "name": "getMedicine",
      "outputs": [
        {
          "internalType": "uint256",
          "name": "",
          "type": "uint256"
        },
        {
          "internalType": "uint256",
          "name": "",
          "type": "uint256"
        },
        {
          "internalType": "string",
          "name": "",
          "type": "string"
        },
        {
          "internalType": "string",
          "name": "",
          "type": "string"
        },
        {
          "internalType": "bool",
          "name": "",
          "type": "bool"
        },
        {
          "internalType": "uint256",
          "name": "",
          "type": "uint256"
        },
        {
          "internalType": "bool",
          "name": "",
          "type": "bool"
        },
        {
          "internalType": "uint256",
          "name": "",
          "type": "uint256"
        },
        {
          "internalType": "bool",
          "name": "",
          "type": "bool"
        },
        {
          "internalType": "uint256",
          "name": "",
          "type": "uint256"
        },
        {
          "internalType": "bool",
          "name": "",
          "type": "bool"
        },
        {
          "internalType": "uint256",
          "name": "",
          "type": "uint256"
        }
      ],
      "stateMutability": "view",
      "type": "function"
    },
    {
      "inputs": [],
      "name": "healthDepartmentAddress",
      "outputs": [
        {
          "internalType": "address",
          "name": "",
          "type": "address"
        }
      ],
      "stateMutability": "view",
      "type": "function"
    },
    {
      "inputs": [],
      "name": "internalQCQAAddress",
      "outputs": [
        {
          "internalType": "address",
          "name": "",
          "type": "address"
        }
      ],
      "stateMutability": "view",
      "type": "function"
    },
    {
      "inputs": [],
      "name": "medicine",
      "outputs": [
        {
          "internalType": "uint256",
          "name": "id",
          "type": "uint256"
        },
        {
          "internalType": "uint256",
          "name": "price",
          "type": "uint256"
        },
        {
          "internalType": "string",
          "name": "name",
          "type": "string"
        },
        {
          "internalType": "string",
          "name": "infomation",
          "type": "string"
        },
        {
          "internalType": "bool",
          "name": "developed",
          "type": "bool"
        },
        {
          "internalType": "uint256",
          "name": "developedTime",
          "type": "uint256"
        },
        {
          "internalType": "bool",
          "name": "internalQCQA",
          "type": "bool"
        },
        {
          "internalType": "uint256",
          "name": "internalQCQATime",
          "type": "uint256"
        },
        {
          "internalType": "bool",
          "name": "externalQCQA",
          "type": "bool"
        },
        {
          "internalType": "uint256",
          "name": "externalQCQATime",
          "type": "uint256"
        },
        {
          "internalType": "bool",
          "name": "approved",
          "type": "bool"
        },
        {
          "internalType": "uint256",
          "name": "approvedTime",
          "type": "uint256"
        }
      ],
      "stateMutability": "view",
      "type": "function"
    },
    {
      "inputs": [],
      "name": "pharmaceuticalCompanyAddress",
      "outputs": [
        {
          "internalType": "address",
          "name": "",
          "type": "address"
        }
      ],
      "stateMutability": "view",
      "type": "function"
    },
    {
      "inputs": [
        {
          "internalType": "address",
          "name": "_externalQCACAddress",
          "type": "address"
        }
      ],
      "name": "setExternalQCQA",
      "outputs": [],
      "stateMutability": "nonpayable",
      "type": "function"
    },
    {
      "inputs": [
        {
          "internalType": "address",
          "name": "_healthDepartmentAddress",
          "type": "address"
        }
      ],
      "name": "setHealthDepartment",
      "outputs": [],
      "stateMutability": "nonpayable",
      "type": "function"
    },
    {
      "inputs": [
        {
          "internalType": "address",
          "name": "_internalQCQAAddress",
          "type": "address"
        }
      ],
      "name": "setInternalQCQA",
      "outputs": [],
      "stateMutability": "nonpayable",
      "type": "function"
    },
    {
      "inputs": [
        {
          "internalType": "uint256",
          "name": "_id",
          "type": "uint256"
        },
        {
          "internalType": "uint256",
          "name": "_price",
          "type": "uint256"
        },
        {
          "internalType": "string",
          "name": "_name",
          "type": "string"
        },
        {
          "internalType": "string",
          "name": "_infomation",
          "type": "string"
        },
        {
          "internalType": "bool",
          "name": "_developed",
          "type": "bool"
        },
        {
          "internalType": "uint256",
          "name": "_developedTime",
          "type": "uint256"
        },
        {
          "internalType": "bool",
          "name": "_internalQCQA",
          "type": "bool"
        },
        {
          "internalType": "uint256",
          "name": "_internalQCQATime",
          "type": "uint256"
        },
        {
          "internalType": "bool",
          "name": "_externalQCQA",
          "type": "bool"
        },
        {
          "internalType": "uint256",
          "name": "_externalQCQATime",
          "type": "uint256"
        },
        {
          "internalType": "bool",
          "name": "_approved",
          "type": "bool"
        },
        {
          "internalType": "uint256",
          "name": "_approvedTime",
          "type": "uint256"
        }
      ],
      "name": "setMedicine",
      "outputs": [],
      "stateMutability": "nonpayable",
      "type": "function"
    },
    {
      "inputs": [
        {
          "internalType": "address",
          "name": "_pharmaceuticalCompanyAddress",
          "type": "address"
        }
      ],
      "name": "setPharmaceuticalCompany",
      "outputs": [],
      "stateMutability": "nonpayable",
      "type": "function"
    },
    {
      "inputs": [
        {
          "internalType": "address",
          "name": "_pharmacyAddress",
          "type": "address"
        },
        {
          "internalType": "uint256",
          "name": "_amount",
          "type": "uint256"
        },
        {
          "internalType": "uint256",
          "name": "_orderTime",
          "type": "uint256"
        },
        {
          "internalType": "string",
          "name": "_pharmacyPhysicalAddress",
          "type": "string"
        }
      ],
      "name": "addOrder",
      "outputs": [
        {
          "internalType": "uint256",
          "name": "",
          "type": "uint256"
        }
      ],
      "stateMutability": "nonpayable",
      "type": "function"
    }
  ],
  "bytecode": "0x6080604052600060105534801561001557600080fd5b506112df806100256000396000f3fe608060405234801561001057600080fd5b50600436106100e95760003560e01c8063913c74471161008c578063e11ada6c11610066578063e11ada6c1461058d578063e25de2ab1461074c578063e3cf144e14610790578063f595c485146107d4576100e9565b8063913c744714610507578063b9172c7a14610525578063c49c8aaa14610559576100e9565b806355a3bc2f116100c857806355a3bc2f146102a3578063697bc1f3146103a6578063802dba9f146103ea5780638fb326f21461041e576100e9565b806258b5e4146100ee578063284f2d58146101325780634ba057cd1461026f575b600080fd5b6101306004803603602081101561010457600080fd5b81019080803573ffffffffffffffffffffffffffffffffffffffff169060200190929190505050610911565b005b61013a610955565b604051808d81526020018c815260200180602001806020018b151581526020018a815260200189151581526020018881526020018715158152602001868152602001851515815260200184815260200183810383528d818151815260200191508051906020019080838360005b838110156101c25780820151818401526020810190506101a7565b50505050905090810190601f1680156101ef5780820380516001836020036101000a031916815260200191505b5083810382528c818151815260200191508051906020019080838360005b8381101561022857808201518184015260208101905061020d565b50505050905090810190601f1680156102555780820380516001836020036101000a031916815260200191505b509e50505050505050505050505050505060405180910390f35b610277610b07565b604051808273ffffffffffffffffffffffffffffffffffffffff16815260200191505060405180910390f35b610390600480360360808110156102b957600080fd5b81019080803573ffffffffffffffffffffffffffffffffffffffff16906020019092919080359060200190929190803590602001909291908035906020019064010000000081111561030a57600080fd5b82018360208201111561031c57600080fd5b8035906020019184600183028401116401000000008311171561033e57600080fd5b91908080601f016020809104026020016040519081016040528093929190818152602001838380828437600081840152601f19601f820116905080830192505050505050509192919290505050610b2d565b6040518082815260200191505060405180910390f35b6103e8600480360360208110156103bc57600080fd5b81019080803573ffffffffffffffffffffffffffffffffffffffff169060200190929190505050610c64565b005b6103f2610ca8565b604051808273ffffffffffffffffffffffffffffffffffffffff16815260200191505060405180910390f35b61044a6004803603602081101561043457600080fd5b8101908080359060200190929190505050610cce565b604051808881526020018773ffffffffffffffffffffffffffffffffffffffff168152602001868152602001851515815260200184815260200183815260200180602001828103825283818151815260200191508051906020019080838360005b838110156104c65780820151818401526020810190506104ab565b50505050905090810190601f1680156104f35780820380516001836020036101000a031916815260200191505b509850505050505050505060405180910390f35b61050f610dd5565b6040518082815260200191505060405180910390f35b61052d610ddb565b604051808273ffffffffffffffffffffffffffffffffffffffff16815260200191505060405180910390f35b610561610e01565b604051808273ffffffffffffffffffffffffffffffffffffffff16815260200191505060405180910390f35b61074a60048036036101808110156105a457600080fd5b810190808035906020019092919080359060200190929190803590602001906401000000008111156105d557600080fd5b8201836020820111156105e757600080fd5b8035906020019184600183028401116401000000008311171561060957600080fd5b91908080601f016020809104026020016040519081016040528093929190818152602001838380828437600081840152601f19601f8201169050808301925050505050505091929192908035906020019064010000000081111561066c57600080fd5b82018360208201111561067e57600080fd5b803590602001918460018302840111640100000000831117156106a057600080fd5b91908080601f016020809104026020016040519081016040528093929190818152602001838380828437600081840152601f19601f82011690508083019250505050505050919291929080351515906020019092919080359060200190929190803515159060200190929190803590602001909291908035151590602001909291908035906020019092919080351515906020019092919080359060200190929190505050610e27565b005b61078e6004803603602081101561076257600080fd5b81019080803573ffffffffffffffffffffffffffffffffffffffff169060200190929190505050610f8d565b005b6107d2600480360360208110156107a657600080fd5b81019080803573ffffffffffffffffffffffffffffffffffffffff169060200190929190505050610fd1565b005b6107dc611015565b604051808d81526020018c815260200180602001806020018b151581526020018a815260200189151581526020018881526020018715158152602001868152602001851515815260200184815260200183810383528d818151815260200191508051906020019080838360005b83811015610864578082015181840152602081019050610849565b50505050905090810190601f1680156108915780820380516001836020036101000a031916815260200191505b5083810382528c818151815260200191508051906020019080838360005b838110156108ca5780820151818401526020810190506108af565b50505050905090810190601f1680156108f75780820380516001836020036101000a031916815260200191505b509e50505050505050505050505050505060405180910390f35b80600d60006101000a81548173ffffffffffffffffffffffffffffffffffffffff021916908373ffffffffffffffffffffffffffffffffffffffff16021790555050565b6000806000015490806001015490806002018054600181600116156101000203166002900480601f0160208091040260200160405190810160405280929190818152602001828054600181600116156101000203166002900480156109fb5780601f106109d0576101008083540402835291602001916109fb565b820191906000526020600020905b8154815290600101906020018083116109de57829003601f168201915b505050505090806003018054600181600116156101000203166002900480601f016020809104026020016040519081016040528092919081815260200182805460018160011615610100020316600290048015610a995780601f10610a6e57610100808354040283529160200191610a99565b820191906000526020600020905b815481529060010190602001808311610a7c57829003601f168201915b5050505050908060040160009054906101000a900460ff16908060050154908060060160009054906101000a900460ff16908060070154908060080160009054906101000a900460ff169080600901549080600a0160009054906101000a900460ff169080600b015490508c565b600e60009054906101000a900473ffffffffffffffffffffffffffffffffffffffff1681565b60006040518060e0016040528060105481526020018673ffffffffffffffffffffffffffffffffffffffff16815260200185815260200160001515815260200184815260200160008152602001838152506011600060105481526020019081526020016000206000820151816000015560208201518160010160006101000a81548173ffffffffffffffffffffffffffffffffffffffff021916908373ffffffffffffffffffffffffffffffffffffffff1602179055506040820151816002015560608201518160030160006101000a81548160ff0219169083151502179055506080820151816004015560a0820151816005015560c0820151816006019080519060200190610c3e9291906111fe565b509050506010600081548092919060010191905055506001601054039050949350505050565b80600c60006101000a81548173ffffffffffffffffffffffffffffffffffffffff021916908373ffffffffffffffffffffffffffffffffffffffff16021790555050565b600f60009054906101000a900473ffffffffffffffffffffffffffffffffffffffff1681565b60116020528060005260406000206000915090508060000154908060010160009054906101000a900473ffffffffffffffffffffffffffffffffffffffff16908060020154908060030160009054906101000a900460ff1690806004015490806005015490806006018054600181600116156101000203166002900480601f016020809104026020016040519081016040528092919081815260200182805460018160011615610100020316600290048015610dcb5780601f10610da057610100808354040283529160200191610dcb565b820191906000526020600020905b815481529060010190602001808311610dae57829003601f168201915b5050505050905087565b60105481565b600d60009054906101000a900473ffffffffffffffffffffffffffffffffffffffff1681565b600c60009054906101000a900473ffffffffffffffffffffffffffffffffffffffff1681565b6040518061018001604052808d81526020018c81526020018b81526020018a81526020018915158152602001888152602001871515815260200186815260200185151581526020018481526020018315158152602001828152506000808201518160000155602082015181600101556040820151816002019080519060200190610eb29291906111fe565b506060820151816003019080519060200190610ecf9291906111fe565b5060808201518160040160006101000a81548160ff02191690831515021790555060a0820151816005015560c08201518160060160006101000a81548160ff02191690831515021790555060e082015181600701556101008201518160080160006101000a81548160ff021916908315150217905550610120820151816009015561014082015181600a0160006101000a81548160ff02191690831515021790555061016082015181600b0155905050505050505050505050505050565b80600f60006101000a81548173ffffffffffffffffffffffffffffffffffffffff021916908373ffffffffffffffffffffffffffffffffffffffff16021790555050565b80600e60006101000a81548173ffffffffffffffffffffffffffffffffffffffff021916908373ffffffffffffffffffffffffffffffffffffffff16021790555050565b600080606080600080600080600080600080600080015460006001015460006002016000600301600060040160009054906101000a900460ff16600060050154600060060160009054906101000a900460ff16600060070154600060080160009054906101000a900460ff166000600901546000600a0160009054906101000a900460ff166000600b0154898054600181600116156101000203166002900480601f0160208091040260200160405190810160405280929190818152602001828054600181600116156101000203166002900480156111355780601f1061110a57610100808354040283529160200191611135565b820191906000526020600020905b81548152906001019060200180831161111857829003601f168201915b50505050509950888054600181600116156101000203166002900480601f0160208091040260200160405190810160405280929190818152602001828054600181600116156101000203166002900480156111d15780601f106111a6576101008083540402835291602001916111d1565b820191906000526020600020905b8154815290600101906020018083116111b457829003601f168201915b505050505098509b509b509b509b509b509b509b509b509b509b509b509b50909192939495969798999a9b565b828054600181600116156101000203166002900490600052602060002090601f016020900481019282611234576000855561127b565b82601f1061124d57805160ff191683800117855561127b565b8280016001018555821561127b579182015b8281111561127a57825182559160200191906001019061125f565b5b509050611288919061128c565b5090565b5b808211156112a557600081600090555060010161128d565b509056fea26469706673582212205e917a44e291e54a81bd33787f30a67bf1bccc0f9bb45abfe0cdf5209a38bca664736f6c63430007060033",
  "immutableReferences": {},
  "source": "// SPDX-License-Identifier: MIT\npragma solidity >=0.4.22 <0.9.0;\nimport \"./Medicine.sol\";\nimport \"../Ownable.sol\";\ncontract Order is Medicine, Ownable{\n    struct _Order {\n        uint256 id;\n        address pharmacyAddress;\n        uint256 amount;\n        bool supplied;\n        uint256 orderTime;\n        uint256 supplyTime;\n        string pharmacyPhysicalAddress;\n    }\n    uint256 public OrderAmount=0;\n    mapping(uint256 => _Order) public Orders;\n    function addOrder(address _pharmacyAddress,uint256 _amount,uint256 _orderTime, string memory _pharmacyPhysicalAddress) public returns(uint256){\n        Orders[OrderAmount] = _Order(\n            OrderAmount,_pharmacyAddress,_amount,false,_orderTime,0,_pharmacyPhysicalAddress\n        );\n        OrderAmount++;\n        return OrderAmount - 1;\n    }\n    \n}",
  "sourcePath": "/Users/yiulapsang/Desktop/workspace/blockchain/medicine-supply-chain/contracts/object/Order.sol",
  "compiler": {
    "name": "solc",
    "version": "0.7.6+commit.7338295f.Emscripten.clang"
  },
  "schemaVersion": "3.3.3",
  "updatedAt": "2021-03-26T01:48:00.441Z",
  "devdoc": {
    "kind": "dev",
    "methods": {},
    "version": 1
  },
  "userdoc": {
    "kind": "user",
    "methods": {},
    "version": 1
  }
}