{
  "contractName": "Ownable",
  "abi": [
    {
      "inputs": [],
      "name": "externalQCACAddress",
      "outputs": [
        {
          "internalType": "address",
          "name": "",
          "type": "address"
        }
      ],
      "stateMutability": "view",
      "type": "function"
    },
    {
      "inputs": [],
      "name": "healthDepartmentAddress",
      "outputs": [
        {
          "internalType": "address",
          "name": "",
          "type": "address"
        }
      ],
      "stateMutability": "view",
      "type": "function"
    },
    {
      "inputs": [],
      "name": "internalQCQAAddress",
      "outputs": [
        {
          "internalType": "address",
          "name": "",
          "type": "address"
        }
      ],
      "stateMutability": "view",
      "type": "function"
    },
    {
      "inputs": [],
      "name": "pharmaceuticalCompanyAddress",
      "outputs": [
        {
          "internalType": "address",
          "name": "",
          "type": "address"
        }
      ],
      "stateMutability": "view",
      "type": "function"
    },
    {
      "inputs": [
        {
          "internalType": "address",
          "name": "_pharmaceuticalCompanyAddress",
          "type": "address"
        }
      ],
      "name": "setPharmaceuticalCompany",
      "outputs": [],
      "stateMutability": "nonpayable",
      "type": "function"
    },
    {
      "inputs": [
        {
          "internalType": "address",
          "name": "_internalQCQAAddress",
          "type": "address"
        }
      ],
      "name": "setInternalQCQA",
      "outputs": [],
      "stateMutability": "nonpayable",
      "type": "function"
    },
    {
      "inputs": [
        {
          "internalType": "address",
          "name": "_externalQCACAddress",
          "type": "address"
        }
      ],
      "name": "setExternalQCQA",
      "outputs": [],
      "stateMutability": "nonpayable",
      "type": "function"
    },
    {
      "inputs": [
        {
          "internalType": "address",
          "name": "_healthDepartmentAddress",
          "type": "address"
        }
      ],
      "name": "setHealthDepartment",
      "outputs": [],
      "stateMutability": "nonpayable",
      "type": "function"
    }
  ],
  "bytecode": "0x608060405234801561001057600080fd5b50610447806100206000396000f3fe608060405234801561001057600080fd5b50600436106100875760003560e01c8063b9172c7a1161005b578063b9172c7a1461017c578063c49c8aaa146101b0578063e25de2ab146101e4578063e3cf144e1461022857610087565b806258b5e41461008c5780634ba057cd146100d0578063697bc1f314610104578063802dba9f14610148575b600080fd5b6100ce600480360360208110156100a257600080fd5b81019080803573ffffffffffffffffffffffffffffffffffffffff16906020019092919050505061026c565b005b6100d86102b0565b604051808273ffffffffffffffffffffffffffffffffffffffff16815260200191505060405180910390f35b6101466004803603602081101561011a57600080fd5b81019080803573ffffffffffffffffffffffffffffffffffffffff1690602001909291905050506102d4565b005b610150610318565b604051808273ffffffffffffffffffffffffffffffffffffffff16815260200191505060405180910390f35b61018461033e565b604051808273ffffffffffffffffffffffffffffffffffffffff16815260200191505060405180910390f35b6101b8610364565b604051808273ffffffffffffffffffffffffffffffffffffffff16815260200191505060405180910390f35b610226600480360360208110156101fa57600080fd5b81019080803573ffffffffffffffffffffffffffffffffffffffff16906020019092919050505061038a565b005b61026a6004803603602081101561023e57600080fd5b81019080803573ffffffffffffffffffffffffffffffffffffffff1690602001909291905050506103ce565b005b80600160006101000a81548173ffffffffffffffffffffffffffffffffffffffff021916908373ffffffffffffffffffffffffffffffffffffffff16021790555050565b60008054906101000a900473ffffffffffffffffffffffffffffffffffffffff1681565b80600260006101000a81548173ffffffffffffffffffffffffffffffffffffffff021916908373ffffffffffffffffffffffffffffffffffffffff16021790555050565b600360009054906101000a900473ffffffffffffffffffffffffffffffffffffffff1681565b600160009054906101000a900473ffffffffffffffffffffffffffffffffffffffff1681565b600260009054906101000a900473ffffffffffffffffffffffffffffffffffffffff1681565b80600360006101000a81548173ffffffffffffffffffffffffffffffffffffffff021916908373ffffffffffffffffffffffffffffffffffffffff16021790555050565b806000806101000a81548173ffffffffffffffffffffffffffffffffffffffff021916908373ffffffffffffffffffffffffffffffffffffffff1602179055505056fea264697066735822122027a413f61fa7181427f0b453f1c885b6d2a277fe0f4985c130e00cd8f536468d64736f6c63430007060033",
  "immutableReferences": {},
  "source": "// SPDX-License-Identifier: MIT\npragma solidity >=0.4.22 <0.9.0;\n\ncontract Ownable{\n    address public pharmaceuticalCompanyAddress;\n    address public internalQCQAAddress;\n    address public externalQCACAddress;\n    address public healthDepartmentAddress;\n    \n    modifier isPharmaceuticalCompany(address _pharmaceuticalCompanyAddress){\n        require(pharmaceuticalCompanyAddress==_pharmaceuticalCompanyAddress);\n        _;\n    }\n\n     modifier isInternalQCQAAddress(address _internalQCQAAddress){\n        require(internalQCQAAddress==_internalQCQAAddress);\n        _;\n    }\n\n     modifier isExternalQCACAddress(address _externalQCACAddress){\n        require(externalQCACAddress==_externalQCACAddress);\n        _;\n    }\n\n     modifier isHealthDepartmentAddress(address _healthDepartmentAddress){\n        require(healthDepartmentAddress==_healthDepartmentAddress);\n        _;\n    }\n\n    function setPharmaceuticalCompany(address _pharmaceuticalCompanyAddress) public{\n        pharmaceuticalCompanyAddress = _pharmaceuticalCompanyAddress;\n    }\n    \n    function setInternalQCQA(address _internalQCQAAddress) public{\n        internalQCQAAddress = _internalQCQAAddress;\n    }\n    \n    function setExternalQCQA(address _externalQCACAddress) public{\n        externalQCACAddress = _externalQCACAddress;\n    }\n    \n    function setHealthDepartment(address _healthDepartmentAddress) public{\n        healthDepartmentAddress = _healthDepartmentAddress;\n    }\n}",
  "sourcePath": "/Users/yiulapsang/Desktop/workspace/blockchain/medicine-supply-chain/contracts/Ownable.sol",
  "compiler": {
    "name": "solc",
    "version": "0.7.6+commit.7338295f.Emscripten.clang"
  },
  "schemaVersion": "3.3.3",
  "updatedAt": "2021-03-15T01:42:22.053Z",
  "devdoc": {
    "kind": "dev",
    "methods": {},
    "version": 1
  },
  "userdoc": {
    "kind": "user",
    "methods": {},
    "version": 1
  }
}