{
  "contractName": "SupplyChainFactory",
  "abi": [
    {
      "inputs": [],
      "name": "count",
      "outputs": [
        {
          "internalType": "uint256",
          "name": "",
          "type": "uint256"
        }
      ],
      "stateMutability": "view",
      "type": "function",
      "constant": true
    },
    {
      "inputs": [
        {
          "internalType": "uint256",
          "name": "",
          "type": "uint256"
        }
      ],
      "name": "deployedSupplyChain",
      "outputs": [
        {
          "internalType": "address",
          "name": "",
          "type": "address"
        }
      ],
      "stateMutability": "view",
      "type": "function",
      "constant": true
    },
    {
      "inputs": [
        {
          "internalType": "uint256",
          "name": "_chainStartTime",
          "type": "uint256"
        },
        {
          "internalType": "uint256",
          "name": "_chainEndTime",
          "type": "uint256"
        },
        {
          "internalType": "address",
          "name": "_externalQCACAddress",
          "type": "address"
        },
        {
          "internalType": "address",
          "name": "_internalQCQAAddress",
          "type": "address"
        },
        {
          "internalType": "address",
          "name": "_pharmaceuticalCompanyAddress",
          "type": "address"
        },
        {
          "internalType": "address",
          "name": "_healthDepartmentAddress",
          "type": "address"
        }
      ],
      "name": "createSupplyChain",
      "outputs": [],
      "stateMutability": "nonpayable",
      "type": "function"
    }
  ],
  "bytecode": "0x6080604052600060015534801561001557600080fd5b50611cca806100256000396000f3fe608060405234801561001057600080fd5b50600436106100415760003560e01c806306661abd146100465780639401c0ff14610064578063fab57ffc1461011c575b600080fd5b61004e610174565b6040518082815260200191505060405180910390f35b61011a600480360360c081101561007a57600080fd5b810190808035906020019092919080359060200190929190803573ffffffffffffffffffffffffffffffffffffffff169060200190929190803573ffffffffffffffffffffffffffffffffffffffff169060200190929190803573ffffffffffffffffffffffffffffffffffffffff169060200190929190803573ffffffffffffffffffffffffffffffffffffffff16906020019092919050505061017a565b005b6101486004803603602081101561013257600080fd5b810190808035906020019092919050505061043b565b604051808273ffffffffffffffffffffffffffffffffffffffff16815260200191505060405180910390f35b60015481565b6000868660405161018a9061047a565b8083815260200182815260200192505050604051809103906000f0801580156101b7573d6000803e3d6000fd5b5090506000819080600181540180825580915050600190039060005260206000200160009091909190916101000a81548173ffffffffffffffffffffffffffffffffffffffff021916908373ffffffffffffffffffffffffffffffffffffffff1602179055508073ffffffffffffffffffffffffffffffffffffffff1663697bc1f3866040518263ffffffff1660e01b8152600401808273ffffffffffffffffffffffffffffffffffffffff168152602001915050600060405180830381600087803b15801561028657600080fd5b505af115801561029a573d6000803e3d6000fd5b505050508073ffffffffffffffffffffffffffffffffffffffff166258b5e4856040518263ffffffff1660e01b8152600401808273ffffffffffffffffffffffffffffffffffffffff168152602001915050600060405180830381600087803b15801561030657600080fd5b505af115801561031a573d6000803e3d6000fd5b505050508073ffffffffffffffffffffffffffffffffffffffff1663e3cf144e846040518263ffffffff1660e01b8152600401808273ffffffffffffffffffffffffffffffffffffffff168152602001915050600060405180830381600087803b15801561038757600080fd5b505af115801561039b573d6000803e3d6000fd5b505050508073ffffffffffffffffffffffffffffffffffffffff1663e25de2ab836040518263ffffffff1660e01b8152600401808273ffffffffffffffffffffffffffffffffffffffff168152602001915050600060405180830381600087803b15801561040857600080fd5b505af115801561041c573d6000803e3d6000fd5b5050505060016000815480929190600101919050555050505050505050565b6000818154811061044b57600080fd5b906000526020600020016000915054906101000a900473ffffffffffffffffffffffffffffffffffffffff1681565b61180d806104888339019056fe6080604052600060105534801561001557600080fd5b5060405161180d38038061180d8339818101604052604081101561003857600080fd5b8101908080519060200190929190805190602001909291905050508160128190555080601381905550505061179b806100726000396000f3fe608060405234801561001057600080fd5b50600436106101575760003560e01c80639a5ed3c5116100c3578063c91580ba1161007c578063c91580ba14610744578063dd936a5c1461077c578063e11ada6c146107b6578063e25de2ab14610975578063e3cf144e146109b9578063f595c485146109fd57610157565b80639a5ed3c514610642578063a0dce1e11461067a578063a849642614610684578063b9172c7a146106a2578063c49c8aaa146106d6578063c789cc541461070a57610157565b806360b430291161011557806360b4302914610456578063697bc1f3146104745780637e279666146104b8578063802dba9f146104d65780638fb326f21461050a578063908d85f21461058757610157565b806258b5e41461015c5780630b5888a0146101a0578063194d2fe21461026f578063284f2d58146102c75780634ba057cd146104045780635b054f9b14610438575b600080fd5b61019e6004803603602081101561017257600080fd5b81019080803573ffffffffffffffffffffffffffffffffffffffff169060200190929190505050610b3a565b005b61026d600480360360608110156101b657600080fd5b8101908080359060200190929190803590602001906401000000008111156101dd57600080fd5b8201836020820111156101ef57600080fd5b8035906020019184600183028401116401000000008311171561021157600080fd5b91908080601f016020809104026020016040519081016040528093929190818152602001838380828437600081840152601f19601f82011690508083019250505050505050919291929080359060200190929190505050610b7e565b005b6102c56004803603606081101561028557600080fd5b81019080803573ffffffffffffffffffffffffffffffffffffffff1690602001909291908035906020019092919080359060200190929190505050610c0d565b005b6102cf610d14565b604051808d81526020018c815260200180602001806020018b151581526020018a815260200189151581526020018881526020018715158152602001868152602001851515815260200184815260200183810383528d818151815260200191508051906020019080838360005b8381101561035757808201518184015260208101905061033c565b50505050905090810190601f1680156103845780820380516001836020036101000a031916815260200191505b5083810382528c818151815260200191508051906020019080838360005b838110156103bd5780820151818401526020810190506103a2565b50505050905090810190601f1680156103ea5780820380516001836020036101000a031916815260200191505b509e50505050505050505050505050505060405180910390f35b61040c610ec6565b604051808273ffffffffffffffffffffffffffffffffffffffff16815260200191505060405180910390f35b610440610eec565b6040518082815260200191505060405180910390f35b61045e610ef2565b6040518082815260200191505060405180910390f35b6104b66004803603602081101561048a57600080fd5b81019080803573ffffffffffffffffffffffffffffffffffffffff169060200190929190505050610ef8565b005b6104c0610f3c565b6040518082815260200191505060405180910390f35b6104de610f42565b604051808273ffffffffffffffffffffffffffffffffffffffff16815260200191505060405180910390f35b6105366004803603602081101561052057600080fd5b8101908080359060200190929190505050610f68565b604051808781526020018673ffffffffffffffffffffffffffffffffffffffff1681526020018581526020018415158152602001838152602001828152602001965050505050505060405180910390f35b6106406004803603602081101561059d57600080fd5b81019080803590602001906401000000008111156105ba57600080fd5b8201836020820111156105cc57600080fd5b803590602001918460018302840111640100000000831117156105ee57600080fd5b91908080601f016020809104026020016040519081016040528093929190818152602001838380828437600081840152601f19601f820116905080830192505050505050509192919290505050610fd1565b005b6106786004803603604081101561065857600080fd5b81019080803590602001909291908035906020019092919050505061104a565b005b6106826110f4565b005b61068c611170565b6040518082815260200191505060405180910390f35b6106aa61117a565b604051808273ffffffffffffffffffffffffffffffffffffffff16815260200191505060405180910390f35b6106de6111a0565b604051808273ffffffffffffffffffffffffffffffffffffffff16815260200191505060405180910390f35b6107426004803603604081101561072057600080fd5b81019080803515159060200190929190803590602001909291905050506111c6565b005b61077a6004803603604081101561075a57600080fd5b81019080803590602001909291908035906020019092919050505061124d565b005b6107b46004803603604081101561079257600080fd5b810190808035151590602001909291908035906020019092919050505061125c565b005b61097360048036036101808110156107cd57600080fd5b810190808035906020019092919080359060200190929190803590602001906401000000008111156107fe57600080fd5b82018360208201111561081057600080fd5b8035906020019184600183028401116401000000008311171561083257600080fd5b91908080601f016020809104026020016040519081016040528093929190818152602001838380828437600081840152601f19601f8201169050808301925050505050505091929192908035906020019064010000000081111561089557600080fd5b8201836020820111156108a757600080fd5b803590602001918460018302840111640100000000831117156108c957600080fd5b91908080601f016020809104026020016040519081016040528093929190818152602001838380828437600081840152601f19601f820116905080830192505050505050509192919290803515159060200190929190803590602001909291908035151590602001909291908035906020019092919080351515906020019092919080359060200190929190803515159060200190929190803590602001909291905050506112e3565b005b6109b76004803603602081101561098b57600080fd5b81019080803573ffffffffffffffffffffffffffffffffffffffff169060200190929190505050611449565b005b6109fb600480360360208110156109cf57600080fd5b81019080803573ffffffffffffffffffffffffffffffffffffffff16906020019092919050505061148d565b005b610a056114d1565b604051808d81526020018c815260200180602001806020018b151581526020018a815260200189151581526020018881526020018715158152602001868152602001851515815260200184815260200183810383528d818151815260200191508051906020019080838360005b83811015610a8d578082015181840152602081019050610a72565b50505050905090810190601f168015610aba5780820380516001836020036101000a031916815260200191505b5083810382528c818151815260200191508051906020019080838360005b83811015610af3578082015181840152602081019050610ad8565b50505050905090810190601f168015610b205780820380516001836020036101000a031916815260200191505b509e50505050505050505050505050505060405180910390f35b80600d60006101000a81548173ffffffffffffffffffffffffffffffffffffffff021916908373ffffffffffffffffffffffffffffffffffffffff16021790555050565b338073ffffffffffffffffffffffffffffffffffffffff16600e60009054906101000a900473ffffffffffffffffffffffffffffffffffffffff1673ffffffffffffffffffffffffffffffffffffffff1614610bd957600080fd5b836000600101819055508260006002019080519060200190610bfc9291906116ba565b508160006005018190555050505050565b6040518060c0016040528060105481526020018473ffffffffffffffffffffffffffffffffffffffff16815260200183815260200160001515815260200182815260200160008152506011600060105481526020019081526020016000206000820151816000015560208201518160010160006101000a81548173ffffffffffffffffffffffffffffffffffffffff021916908373ffffffffffffffffffffffffffffffffffffffff1602179055506040820151816002015560608201518160030160006101000a81548160ff0219169083151502179055506080820151816004015560a08201518160050155905050601060008154809291906001019190505550505050565b6000806000015490806001015490806002018054600181600116156101000203166002900480601f016020809104026020016040519081016040528092919081815260200182805460018160011615610100020316600290048015610dba5780601f10610d8f57610100808354040283529160200191610dba565b820191906000526020600020905b815481529060010190602001808311610d9d57829003601f168201915b505050505090806003018054600181600116156101000203166002900480601f016020809104026020016040519081016040528092919081815260200182805460018160011615610100020316600290048015610e585780601f10610e2d57610100808354040283529160200191610e58565b820191906000526020600020905b815481529060010190602001808311610e3b57829003601f168201915b5050505050908060040160009054906101000a900460ff16908060050154908060060160009054906101000a900460ff16908060070154908060080160009054906101000a900460ff169080600901549080600a0160009054906101000a900460ff169080600b015490508c565b600e60009054906101000a900473ffffffffffffffffffffffffffffffffffffffff1681565b60125481565b60105481565b80600c60006101000a81548173ffffffffffffffffffffffffffffffffffffffff021916908373ffffffffffffffffffffffffffffffffffffffff16021790555050565b60135481565b600f60009054906101000a900473ffffffffffffffffffffffffffffffffffffffff1681565b60116020528060005260406000206000915090508060000154908060010160009054906101000a900473ffffffffffffffffffffffffffffffffffffffff16908060020154908060030160009054906101000a900460ff16908060040154908060050154905086565b338073ffffffffffffffffffffffffffffffffffffffff16600f60009054906101000a900473ffffffffffffffffffffffffffffffffffffffff1673ffffffffffffffffffffffffffffffffffffffff161461102c57600080fd5b81600060030190805190602001906110459291906116ba565b505050565b338073ffffffffffffffffffffffffffffffffffffffff16600e60009054906101000a900473ffffffffffffffffffffffffffffffffffffffff1673ffffffffffffffffffffffffffffffffffffffff16146110a557600080fd5b60016011600085815260200190815260200160002060030160006101000a81548160ff021916908315150217905550816011600085815260200190815260200160002060050181905550505050565b338073ffffffffffffffffffffffffffffffffffffffff16600f60009054906101000a900473ffffffffffffffffffffffffffffffffffffffff1673ffffffffffffffffffffffffffffffffffffffff161461114f57600080fd5b60016000600a0160006101000a81548160ff02191690831515021790555050565b6000601054905090565b600d60009054906101000a900473ffffffffffffffffffffffffffffffffffffffff1681565b600c60009054906101000a900473ffffffffffffffffffffffffffffffffffffffff1681565b338073ffffffffffffffffffffffffffffffffffffffff16600d60009054906101000a900473ffffffffffffffffffffffffffffffffffffffff1673ffffffffffffffffffffffffffffffffffffffff161461122157600080fd5b82600060060160006101000a81548160ff02191690831515021790555081600060070181905550505050565b611258338383610c0d565b5050565b338073ffffffffffffffffffffffffffffffffffffffff16600c60009054906101000a900473ffffffffffffffffffffffffffffffffffffffff1673ffffffffffffffffffffffffffffffffffffffff16146112b757600080fd5b82600060080160006101000a81548160ff02191690831515021790555081600060090181905550505050565b6040518061018001604052808d81526020018c81526020018b81526020018a8152602001891515815260200188815260200187151581526020018681526020018515158152602001848152602001831515815260200182815250600080820151816000015560208201518160010155604082015181600201908051906020019061136e9291906116ba565b50606082015181600301908051906020019061138b9291906116ba565b5060808201518160040160006101000a81548160ff02191690831515021790555060a0820151816005015560c08201518160060160006101000a81548160ff02191690831515021790555060e082015181600701556101008201518160080160006101000a81548160ff021916908315150217905550610120820151816009015561014082015181600a0160006101000a81548160ff02191690831515021790555061016082015181600b0155905050505050505050505050505050565b80600f60006101000a81548173ffffffffffffffffffffffffffffffffffffffff021916908373ffffffffffffffffffffffffffffffffffffffff16021790555050565b80600e60006101000a81548173ffffffffffffffffffffffffffffffffffffffff021916908373ffffffffffffffffffffffffffffffffffffffff16021790555050565b600080606080600080600080600080600080600080015460006001015460006002016000600301600060040160009054906101000a900460ff16600060050154600060060160009054906101000a900460ff16600060070154600060080160009054906101000a900460ff166000600901546000600a0160009054906101000a900460ff166000600b0154898054600181600116156101000203166002900480601f0160208091040260200160405190810160405280929190818152602001828054600181600116156101000203166002900480156115f15780601f106115c6576101008083540402835291602001916115f1565b820191906000526020600020905b8154815290600101906020018083116115d457829003601f168201915b50505050509950888054600181600116156101000203166002900480601f01602080910402602001604051908101604052809291908181526020018280546001816001161561010002031660029004801561168d5780601f106116625761010080835404028352916020019161168d565b820191906000526020600020905b81548152906001019060200180831161167057829003601f168201915b505050505098509b509b509b509b509b509b509b509b509b509b509b509b50909192939495969798999a9b565b828054600181600116156101000203166002900490600052602060002090601f0160209004810192826116f05760008555611737565b82601f1061170957805160ff1916838001178555611737565b82800160010185558215611737579182015b8281111561173657825182559160200191906001019061171b565b5b5090506117449190611748565b5090565b5b80821115611761576000816000905550600101611749565b509056fea2646970667358221220186d7bf415f128e55fdb78b1b4c0d0227d4ab343f809c546c1eb26162eea75e964736f6c63430007060033a26469706673582212208c4abcc7eb9b10e1b96fa373770844a343a5ff162eacff2727ed93d1be4827ce64736f6c63430007060033",
  "immutableReferences": {},
  "source": "// SPDX-License-Identifier: MIT\npragma solidity >=0.4.22 <0.9.0;\nimport \"./SupplyChain.sol\";\ncontract SupplyChainFactory{\n    address[] public deployedSupplyChain;\n    uint256 public count=0;\n    function createSupplyChain(uint256 _chainStartTime, uint256 _chainEndTime,address _externalQCACAddress,address _internalQCQAAddress,address _pharmaceuticalCompanyAddress,address _healthDepartmentAddress) public{\n        SupplyChain newSupplyChain =new SupplyChain(_chainStartTime, _chainEndTime);\n        deployedSupplyChain.push(address(newSupplyChain));\n        newSupplyChain.setExternalQCQA(_externalQCACAddress);\n        newSupplyChain.setInternalQCQA(_internalQCQAAddress);\n        newSupplyChain.setPharmaceuticalCompany(_pharmaceuticalCompanyAddress);\n        newSupplyChain.setHealthDepartment(_healthDepartmentAddress);\n        count++;\n    }\n}",
  "sourcePath": "/Users/yiulapsang/Desktop/workspace/blockchain/medicine-supply-chain/contracts/SupplyChainFactory.sol",
  "compiler": {
    "name": "solc",
    "version": "0.7.6+commit.7338295f.Emscripten.clang"
  },
  "schemaVersion": "3.3.3",
  "updatedAt": "2021-03-17T05:06:12.871Z",
  "networkType": "ethereum",
  "devdoc": {
    "kind": "dev",
    "methods": {},
    "version": 1
  },
  "userdoc": {
    "kind": "user",
    "methods": {},
    "version": 1
  }
}