{
  "contractName": "SupplyChainFactory",
  "abi": [
    {
      "inputs": [],
      "name": "count",
      "outputs": [
        {
          "internalType": "uint256",
          "name": "",
          "type": "uint256"
        }
      ],
      "stateMutability": "view",
      "type": "function",
      "constant": true
    },
    {
      "inputs": [
        {
          "internalType": "uint256",
          "name": "",
          "type": "uint256"
        }
      ],
      "name": "deployedSupplyChain",
      "outputs": [
        {
          "internalType": "address",
          "name": "",
          "type": "address"
        }
      ],
      "stateMutability": "view",
      "type": "function",
      "constant": true
    },
    {
      "inputs": [
        {
          "internalType": "uint256",
          "name": "_chainStartTime",
          "type": "uint256"
        },
        {
          "internalType": "uint256",
          "name": "_chainEndTime",
          "type": "uint256"
        }
      ],
      "name": "createSupplyChain",
      "outputs": [],
      "stateMutability": "nonpayable",
      "type": "function"
    }
  ],
  "bytecode": "0x6080604052600060015534801561001557600080fd5b506119d1806100256000396000f3fe608060405234801561001057600080fd5b50600436106100415760003560e01c806306661abd14610046578063f23d572b14610064578063fab57ffc1461009c575b600080fd5b61004e6100f4565b6040518082815260200191505060405180910390f35b61009a6004803603604081101561007a57600080fd5b8101908080359060200190929190803590602001909291905050506100fa565b005b6100c8600480360360208110156100b257600080fd5b81019080803590602001909291905050506101b4565b604051808273ffffffffffffffffffffffffffffffffffffffff16815260200191505060405180910390f35b60015481565b6000828260405161010a906101f3565b8083815260200182815260200192505050604051809103906000f080158015610137573d6000803e3d6000fd5b5090506000819080600181540180825580915050600190039060005260206000200160009091909190916101000a81548173ffffffffffffffffffffffffffffffffffffffff021916908373ffffffffffffffffffffffffffffffffffffffff160217905550600160008154809291906001019190505550505050565b600081815481106101c457600080fd5b906000526020600020016000915054906101000a900473ffffffffffffffffffffffffffffffffffffffff1681565b61179b806102018339019056fe60806040526000600f5534801561001557600080fd5b5060405161179b38038061179b8339818101604052604081101561003857600080fd5b81019080805190602001909291908051906020019092919050505081601181905550806012819055505050611729806100726000396000f3fe608060405234801561001057600080fd5b50600436106101575760003560e01c80639a5ed3c5116100c3578063c789cc541161007c578063c789cc54146108b4578063c91580ba146108ee578063dd936a5c14610926578063e25de2ab14610960578063e3cf144e146109a4578063f595c485146109e857610157565b80639a5ed3c514610639578063a0dce1e114610671578063a84964261461067b578063aa9648d414610699578063b9172c7a1461084c578063c49c8aaa1461088057610157565b806360b430291161011557806360b430291461044d578063697bc1f31461046b5780637e279666146104af578063802dba9f146104cd5780638fb326f214610501578063908d85f21461057e57610157565b806258b5e41461015c5780630b5888a0146101a0578063194d2fe21461026f578063284f2d58146102c75780634ba057cd146103fb5780635b054f9b1461042f575b600080fd5b61019e6004803603602081101561017257600080fd5b81019080803573ffffffffffffffffffffffffffffffffffffffff169060200190929190505050610b1c565b005b61026d600480360360608110156101b657600080fd5b8101908080359060200190929190803590602001906401000000008111156101dd57600080fd5b8201836020820111156101ef57600080fd5b8035906020019184600183028401116401000000008311171561021157600080fd5b91908080601f016020809104026020016040519081016040528093929190818152602001838380828437600081840152601f19601f82011690508083019250505050505050919291929080359060200190929190505050610b60565b005b6102c56004803603606081101561028557600080fd5b81019080803573ffffffffffffffffffffffffffffffffffffffff1690602001909291908035906020019092919080359060200190929190505050610bef565b005b6102cf610cf6565b604051808c81526020018b815260200180602001806020018a815260200189151581526020018881526020018715158152602001868152602001851515815260200184815260200183810383528c818151815260200191508051906020019080838360005b8381101561034f578082015181840152602081019050610334565b50505050905090810190601f16801561037c5780820380516001836020036101000a031916815260200191505b5083810382528b818151815260200191508051906020019080838360005b838110156103b557808201518184015260208101905061039a565b50505050905090810190601f1680156103e25780820380516001836020036101000a031916815260200191505b509d505050505050505050505050505060405180910390f35b610403610e95565b604051808273ffffffffffffffffffffffffffffffffffffffff16815260200191505060405180910390f35b610437610ebb565b6040518082815260200191505060405180910390f35b610455610ec1565b6040518082815260200191505060405180910390f35b6104ad6004803603602081101561048157600080fd5b81019080803573ffffffffffffffffffffffffffffffffffffffff169060200190929190505050610ec7565b005b6104b7610f0b565b6040518082815260200191505060405180910390f35b6104d5610f11565b604051808273ffffffffffffffffffffffffffffffffffffffff16815260200191505060405180910390f35b61052d6004803603602081101561051757600080fd5b8101908080359060200190929190505050610f37565b604051808781526020018673ffffffffffffffffffffffffffffffffffffffff1681526020018581526020018415158152602001838152602001828152602001965050505050505060405180910390f35b6106376004803603602081101561059457600080fd5b81019080803590602001906401000000008111156105b157600080fd5b8201836020820111156105c357600080fd5b803590602001918460018302840111640100000000831117156105e557600080fd5b91908080601f016020809104026020016040519081016040528093929190818152602001838380828437600081840152601f19601f820116905080830192505050505050509192919290505050610fa0565b005b61066f6004803603604081101561064f57600080fd5b810190808035906020019092919080359060200190929190505050611019565b005b6106796110c3565b005b61068361113f565b6040518082815260200191505060405180910390f35b61084a60048036036101608110156106b057600080fd5b810190808035906020019092919080359060200190929190803590602001906401000000008111156106e157600080fd5b8201836020820111156106f357600080fd5b8035906020019184600183028401116401000000008311171561071557600080fd5b91908080601f016020809104026020016040519081016040528093929190818152602001838380828437600081840152601f19601f8201169050808301925050505050505091929192908035906020019064010000000081111561077857600080fd5b82018360208201111561078a57600080fd5b803590602001918460018302840111640100000000831117156107ac57600080fd5b91908080601f016020809104026020016040519081016040528093929190818152602001838380828437600081840152601f19601f82011690508083019250505050505050919291929080359060200190929190803515159060200190929190803590602001909291908035151590602001909291908035906020019092919080351515906020019092919080359060200190929190505050611149565b005b610854611285565b604051808273ffffffffffffffffffffffffffffffffffffffff16815260200191505060405180910390f35b6108886112ab565b604051808273ffffffffffffffffffffffffffffffffffffffff16815260200191505060405180910390f35b6108ec600480360360408110156108ca57600080fd5b81019080803515159060200190929190803590602001909291905050506112d1565b005b6109246004803603604081101561090457600080fd5b810190808035906020019092919080359060200190929190505050611358565b005b61095e6004803603604081101561093c57600080fd5b8101908080351515906020019092919080359060200190929190505050611367565b005b6109a26004803603602081101561097657600080fd5b81019080803573ffffffffffffffffffffffffffffffffffffffff1690602001909291905050506113ee565b005b6109e6600480360360208110156109ba57600080fd5b81019080803573ffffffffffffffffffffffffffffffffffffffff169060200190929190505050611432565b005b6109f0611476565b604051808c81526020018b815260200180602001806020018a815260200189151581526020018881526020018715158152602001868152602001851515815260200184815260200183810383528c818151815260200191508051906020019080838360005b83811015610a70578082015181840152602081019050610a55565b50505050905090810190601f168015610a9d5780820380516001836020036101000a031916815260200191505b5083810382528b818151815260200191508051906020019080838360005b83811015610ad6578082015181840152602081019050610abb565b50505050905090810190601f168015610b035780820380516001836020036101000a031916815260200191505b509d505050505050505050505050505060405180910390f35b80600c60006101000a81548173ffffffffffffffffffffffffffffffffffffffff021916908373ffffffffffffffffffffffffffffffffffffffff16021790555050565b338073ffffffffffffffffffffffffffffffffffffffff16600b60009054906101000a900473ffffffffffffffffffffffffffffffffffffffff1673ffffffffffffffffffffffffffffffffffffffff1614610bbb57600080fd5b836000600101819055508260006002019080519060200190610bde929190611648565b508160006004018190555050505050565b6040518060c00160405280600f5481526020018473ffffffffffffffffffffffffffffffffffffffff168152602001838152602001600015158152602001828152602001600081525060106000600f5481526020019081526020016000206000820151816000015560208201518160010160006101000a81548173ffffffffffffffffffffffffffffffffffffffff021916908373ffffffffffffffffffffffffffffffffffffffff1602179055506040820151816002015560608201518160030160006101000a81548160ff0219169083151502179055506080820151816004015560a08201518160050155905050600f60008154809291906001019190505550505050565b6000806000015490806001015490806002018054600181600116156101000203166002900480601f016020809104026020016040519081016040528092919081815260200182805460018160011615610100020316600290048015610d9c5780601f10610d7157610100808354040283529160200191610d9c565b820191906000526020600020905b815481529060010190602001808311610d7f57829003601f168201915b505050505090806003018054600181600116156101000203166002900480601f016020809104026020016040519081016040528092919081815260200182805460018160011615610100020316600290048015610e3a5780601f10610e0f57610100808354040283529160200191610e3a565b820191906000526020600020905b815481529060010190602001808311610e1d57829003601f168201915b5050505050908060040154908060050160009054906101000a900460ff16908060060154908060070160009054906101000a900460ff16908060080154908060090160009054906101000a900460ff169080600a015490508b565b600b60009054906101000a900473ffffffffffffffffffffffffffffffffffffffff1681565b60115481565b600f5481565b80600d60006101000a81548173ffffffffffffffffffffffffffffffffffffffff021916908373ffffffffffffffffffffffffffffffffffffffff16021790555050565b60125481565b600e60009054906101000a900473ffffffffffffffffffffffffffffffffffffffff1681565b60106020528060005260406000206000915090508060000154908060010160009054906101000a900473ffffffffffffffffffffffffffffffffffffffff16908060020154908060030160009054906101000a900460ff16908060040154908060050154905086565b338073ffffffffffffffffffffffffffffffffffffffff16600e60009054906101000a900473ffffffffffffffffffffffffffffffffffffffff1673ffffffffffffffffffffffffffffffffffffffff1614610ffb57600080fd5b8160006003019080519060200190611014929190611648565b505050565b338073ffffffffffffffffffffffffffffffffffffffff16600b60009054906101000a900473ffffffffffffffffffffffffffffffffffffffff1673ffffffffffffffffffffffffffffffffffffffff161461107457600080fd5b60016010600085815260200190815260200160002060030160006101000a81548160ff021916908315150217905550816010600085815260200190815260200160002060050181905550505050565b338073ffffffffffffffffffffffffffffffffffffffff16600e60009054906101000a900473ffffffffffffffffffffffffffffffffffffffff1673ffffffffffffffffffffffffffffffffffffffff161461111e57600080fd5b6001600060090160006101000a81548160ff02191690831515021790555050565b6000600f54905090565b6040518061016001604052808c81526020018b81526020018a81526020018981526020018881526020018715158152602001868152602001851515815260200184815260200183151581526020018281525060008082015181600001556020820151816001015560408201518160020190805190602001906111cc929190611648565b5060608201518160030190805190602001906111e9929190611648565b506080820151816004015560a08201518160050160006101000a81548160ff02191690831515021790555060c0820151816006015560e08201518160070160006101000a81548160ff02191690831515021790555061010082015181600801556101208201518160090160006101000a81548160ff02191690831515021790555061014082015181600a01559050505050505050505050505050565b600c60009054906101000a900473ffffffffffffffffffffffffffffffffffffffff1681565b600d60009054906101000a900473ffffffffffffffffffffffffffffffffffffffff1681565b338073ffffffffffffffffffffffffffffffffffffffff16600c60009054906101000a900473ffffffffffffffffffffffffffffffffffffffff1673ffffffffffffffffffffffffffffffffffffffff161461132c57600080fd5b82600060050160006101000a81548160ff02191690831515021790555081600060060181905550505050565b611363338383610bef565b5050565b338073ffffffffffffffffffffffffffffffffffffffff16600d60009054906101000a900473ffffffffffffffffffffffffffffffffffffffff1673ffffffffffffffffffffffffffffffffffffffff16146113c257600080fd5b82600060070160006101000a81548160ff02191690831515021790555081600060080181905550505050565b80600e60006101000a81548173ffffffffffffffffffffffffffffffffffffffff021916908373ffffffffffffffffffffffffffffffffffffffff16021790555050565b80600b60006101000a81548173ffffffffffffffffffffffffffffffffffffffff021916908373ffffffffffffffffffffffffffffffffffffffff16021790555050565b6000806060806000806000806000806000806000015460006001015460006002016000600301600060040154600060050160009054906101000a900460ff16600060060154600060070160009054906101000a900460ff16600060080154600060090160009054906101000a900460ff166000600a0154888054600181600116156101000203166002900480601f0160208091040260200160405190810160405280929190818152602001828054600181600116156101000203166002900480156115825780601f1061155757610100808354040283529160200191611582565b820191906000526020600020905b81548152906001019060200180831161156557829003601f168201915b50505050509850878054600181600116156101000203166002900480601f01602080910402602001604051908101604052809291908181526020018280546001816001161561010002031660029004801561161e5780601f106115f35761010080835404028352916020019161161e565b820191906000526020600020905b81548152906001019060200180831161160157829003601f168201915b505050505097509a509a509a509a509a509a509a509a509a509a509a50909192939495969798999a565b828054600181600116156101000203166002900490600052602060002090601f01602090048101928261167e57600085556116c5565b82601f1061169757805160ff19168380011785556116c5565b828001600101855582156116c5579182015b828111156116c45782518255916020019190600101906116a9565b5b5090506116d291906116d6565b5090565b5b808211156116ef5760008160009055506001016116d7565b509056fea264697066735822122091037b2c7b1c711eb981e45e028d3e89a4c88edf66c8d5ae1ce86f2df90d199264736f6c63430007060033a264697066735822122024b4559f6225bf390fd0faf342978772780688ee18c510515a1eeab8eef99e4e64736f6c63430007060033",
  "immutableReferences": {},
  "source": "// SPDX-License-Identifier: MIT\npragma solidity >=0.4.22 <0.9.0;\nimport \"./SupplyChain.sol\";\ncontract SupplyChainFactory{\n    address[] public deployedSupplyChain;\n    uint256 public count=0;\n    function createSupplyChain(uint256 _chainStartTime, uint256 _chainEndTime) public{\n        SupplyChain newSupplyChain =new SupplyChain(_chainStartTime, _chainEndTime);\n        deployedSupplyChain.push(address(newSupplyChain));\n        count++;\n    }\n}",
  "sourcePath": "/Users/yiulapsang/Desktop/workspace/blockchain/medicine-supply-chain/contracts/SupplyChainFactory.sol",
  "compiler": {
    "name": "solc",
    "version": "0.7.6+commit.7338295f.Emscripten.clang"
  },
  "schemaVersion": "3.3.3",
  "updatedAt": "2021-03-15T05:22:43.968Z",
  "networkType": "ethereum",
  "devdoc": {
    "kind": "dev",
    "methods": {},
    "version": 1
  },
  "userdoc": {
    "kind": "user",
    "methods": {},
    "version": 1
  }
}