{
  "contractName": "SupplyChain",
  "abi": [
    {
      "inputs": [
        {
          "internalType": "uint256",
          "name": "_chainStartTime",
          "type": "uint256"
        },
        {
          "internalType": "uint256",
          "name": "_chainEndTime",
          "type": "uint256"
        }
      ],
      "stateMutability": "nonpayable",
      "type": "constructor"
    },
    {
      "inputs": [],
      "name": "OrderAmount",
      "outputs": [
        {
          "internalType": "uint256",
          "name": "",
          "type": "uint256"
        }
      ],
      "stateMutability": "view",
      "type": "function"
    },
    {
      "inputs": [
        {
          "internalType": "uint256",
          "name": "",
          "type": "uint256"
        }
      ],
      "name": "Orders",
      "outputs": [
        {
          "internalType": "uint256",
          "name": "id",
          "type": "uint256"
        },
        {
          "internalType": "address",
          "name": "pharmacyAddress",
          "type": "address"
        },
        {
          "internalType": "uint256",
          "name": "amount",
          "type": "uint256"
        },
        {
          "internalType": "bool",
          "name": "supplied",
          "type": "bool"
        },
        {
          "internalType": "uint256",
          "name": "orderTime",
          "type": "uint256"
        },
        {
          "internalType": "uint256",
          "name": "supplyTime",
          "type": "uint256"
        },
        {
          "internalType": "string",
          "name": "pharmacyPhysicalAddress",
          "type": "string"
        }
      ],
      "stateMutability": "view",
      "type": "function"
    },
    {
      "inputs": [
        {
          "internalType": "address",
          "name": "_pharmacyAddress",
          "type": "address"
        },
        {
          "internalType": "uint256",
          "name": "_amount",
          "type": "uint256"
        },
        {
          "internalType": "uint256",
          "name": "_orderTime",
          "type": "uint256"
        },
        {
          "internalType": "string",
          "name": "_pharmacyPhysicalAddress",
          "type": "string"
        }
      ],
      "name": "addOrder",
      "outputs": [
        {
          "internalType": "uint256",
          "name": "",
          "type": "uint256"
        }
      ],
      "stateMutability": "nonpayable",
      "type": "function"
    },
    {
      "inputs": [
        {
          "internalType": "bool",
          "name": "isPass",
          "type": "bool"
        },
        {
          "internalType": "uint256",
          "name": "_approvedTime",
          "type": "uint256"
        }
      ],
      "name": "approveMedicine",
      "outputs": [],
      "stateMutability": "nonpayable",
      "type": "function"
    },
    {
      "inputs": [],
      "name": "chainEndTime",
      "outputs": [
        {
          "internalType": "uint256",
          "name": "",
          "type": "uint256"
        }
      ],
      "stateMutability": "view",
      "type": "function"
    },
    {
      "inputs": [],
      "name": "chainStartTime",
      "outputs": [
        {
          "internalType": "uint256",
          "name": "",
          "type": "uint256"
        }
      ],
      "stateMutability": "view",
      "type": "function"
    },
    {
      "inputs": [
        {
          "internalType": "uint256",
          "name": "_price",
          "type": "uint256"
        },
        {
          "internalType": "string",
          "name": "_name",
          "type": "string"
        },
        {
          "internalType": "uint256",
          "name": "_developedTime",
          "type": "uint256"
        }
      ],
      "name": "developMedicine",
      "outputs": [],
      "stateMutability": "nonpayable",
      "type": "function"
    },
    {
      "inputs": [],
      "name": "externalQCACAddress",
      "outputs": [
        {
          "internalType": "address",
          "name": "",
          "type": "address"
        }
      ],
      "stateMutability": "view",
      "type": "function"
    },
    {
      "inputs": [
        {
          "internalType": "bool",
          "name": "isPass",
          "type": "bool"
        },
        {
          "internalType": "uint256",
          "name": "_externalQCQATime",
          "type": "uint256"
        }
      ],
      "name": "externalQCQA",
      "outputs": [],
      "stateMutability": "nonpayable",
      "type": "function"
    },
    {
      "inputs": [],
      "name": "getMedicine",
      "outputs": [
        {
          "internalType": "uint256",
          "name": "",
          "type": "uint256"
        },
        {
          "internalType": "uint256",
          "name": "",
          "type": "uint256"
        },
        {
          "internalType": "string",
          "name": "",
          "type": "string"
        },
        {
          "internalType": "string",
          "name": "",
          "type": "string"
        },
        {
          "internalType": "bool",
          "name": "",
          "type": "bool"
        },
        {
          "internalType": "uint256",
          "name": "",
          "type": "uint256"
        },
        {
          "internalType": "bool",
          "name": "",
          "type": "bool"
        },
        {
          "internalType": "uint256",
          "name": "",
          "type": "uint256"
        },
        {
          "internalType": "bool",
          "name": "",
          "type": "bool"
        },
        {
          "internalType": "uint256",
          "name": "",
          "type": "uint256"
        },
        {
          "internalType": "bool",
          "name": "",
          "type": "bool"
        },
        {
          "internalType": "uint256",
          "name": "",
          "type": "uint256"
        }
      ],
      "stateMutability": "view",
      "type": "function"
    },
    {
      "inputs": [],
      "name": "healthDepartmentAddress",
      "outputs": [
        {
          "internalType": "address",
          "name": "",
          "type": "address"
        }
      ],
      "stateMutability": "view",
      "type": "function"
    },
    {
      "inputs": [
        {
          "internalType": "bool",
          "name": "isPass",
          "type": "bool"
        },
        {
          "internalType": "uint256",
          "name": "_internalQCQATime",
          "type": "uint256"
        }
      ],
      "name": "internalQCQA",
      "outputs": [],
      "stateMutability": "nonpayable",
      "type": "function"
    },
    {
      "inputs": [],
      "name": "internalQCQAAddress",
      "outputs": [
        {
          "internalType": "address",
          "name": "",
          "type": "address"
        }
      ],
      "stateMutability": "view",
      "type": "function"
    },
    {
      "inputs": [],
      "name": "medicine",
      "outputs": [
        {
          "internalType": "uint256",
          "name": "id",
          "type": "uint256"
        },
        {
          "internalType": "uint256",
          "name": "price",
          "type": "uint256"
        },
        {
          "internalType": "string",
          "name": "name",
          "type": "string"
        },
        {
          "internalType": "string",
          "name": "infomation",
          "type": "string"
        },
        {
          "internalType": "bool",
          "name": "developed",
          "type": "bool"
        },
        {
          "internalType": "uint256",
          "name": "developedTime",
          "type": "uint256"
        },
        {
          "internalType": "bool",
          "name": "internalQCQA",
          "type": "bool"
        },
        {
          "internalType": "uint256",
          "name": "internalQCQATime",
          "type": "uint256"
        },
        {
          "internalType": "bool",
          "name": "externalQCQA",
          "type": "bool"
        },
        {
          "internalType": "uint256",
          "name": "externalQCQATime",
          "type": "uint256"
        },
        {
          "internalType": "bool",
          "name": "approved",
          "type": "bool"
        },
        {
          "internalType": "uint256",
          "name": "approvedTime",
          "type": "uint256"
        }
      ],
      "stateMutability": "view",
      "type": "function"
    },
    {
      "inputs": [],
      "name": "pharmaceuticalCompanyAddress",
      "outputs": [
        {
          "internalType": "address",
          "name": "",
          "type": "address"
        }
      ],
      "stateMutability": "view",
      "type": "function"
    },
    {
      "inputs": [
        {
          "internalType": "string",
          "name": "information",
          "type": "string"
        }
      ],
      "name": "provideInformation",
      "outputs": [],
      "stateMutability": "nonpayable",
      "type": "function"
    },
    {
      "inputs": [
        {
          "internalType": "uint256",
          "name": "_amount",
          "type": "uint256"
        },
        {
          "internalType": "uint256",
          "name": "_orderTime",
          "type": "uint256"
        },
        {
          "internalType": "string",
          "name": "_pharmacyPhysicalAddress",
          "type": "string"
        }
      ],
      "name": "purchaseMedicine",
      "outputs": [
        {
          "internalType": "uint256",
          "name": "",
          "type": "uint256"
        }
      ],
      "stateMutability": "nonpayable",
      "type": "function"
    },
    {
      "inputs": [
        {
          "internalType": "address",
          "name": "_externalQCACAddress",
          "type": "address"
        }
      ],
      "name": "setExternalQCQA",
      "outputs": [],
      "stateMutability": "nonpayable",
      "type": "function"
    },
    {
      "inputs": [
        {
          "internalType": "address",
          "name": "_healthDepartmentAddress",
          "type": "address"
        }
      ],
      "name": "setHealthDepartment",
      "outputs": [],
      "stateMutability": "nonpayable",
      "type": "function"
    },
    {
      "inputs": [
        {
          "internalType": "address",
          "name": "_internalQCQAAddress",
          "type": "address"
        }
      ],
      "name": "setInternalQCQA",
      "outputs": [],
      "stateMutability": "nonpayable",
      "type": "function"
    },
    {
      "inputs": [
        {
          "internalType": "uint256",
          "name": "_id",
          "type": "uint256"
        },
        {
          "internalType": "uint256",
          "name": "_price",
          "type": "uint256"
        },
        {
          "internalType": "string",
          "name": "_name",
          "type": "string"
        },
        {
          "internalType": "string",
          "name": "_infomation",
          "type": "string"
        },
        {
          "internalType": "bool",
          "name": "_developed",
          "type": "bool"
        },
        {
          "internalType": "uint256",
          "name": "_developedTime",
          "type": "uint256"
        },
        {
          "internalType": "bool",
          "name": "_internalQCQA",
          "type": "bool"
        },
        {
          "internalType": "uint256",
          "name": "_internalQCQATime",
          "type": "uint256"
        },
        {
          "internalType": "bool",
          "name": "_externalQCQA",
          "type": "bool"
        },
        {
          "internalType": "uint256",
          "name": "_externalQCQATime",
          "type": "uint256"
        },
        {
          "internalType": "bool",
          "name": "_approved",
          "type": "bool"
        },
        {
          "internalType": "uint256",
          "name": "_approvedTime",
          "type": "uint256"
        }
      ],
      "name": "setMedicine",
      "outputs": [],
      "stateMutability": "nonpayable",
      "type": "function"
    },
    {
      "inputs": [
        {
          "internalType": "address",
          "name": "_pharmaceuticalCompanyAddress",
          "type": "address"
        }
      ],
      "name": "setPharmaceuticalCompany",
      "outputs": [],
      "stateMutability": "nonpayable",
      "type": "function"
    },
    {
      "inputs": [
        {
          "internalType": "uint256",
          "name": "_orderId",
          "type": "uint256"
        },
        {
          "internalType": "uint256",
          "name": "_supplyTime",
          "type": "uint256"
        },
        {
          "internalType": "bool",
          "name": "_supplied",
          "type": "bool"
        }
      ],
      "name": "supplyMedicine",
      "outputs": [],
      "stateMutability": "nonpayable",
      "type": "function"
    }
  ],
  "bytecode": "0x6080604052600060105534801561001557600080fd5b50604051611ad7380380611ad78339818101604052604081101561003857600080fd5b81019080805190602001909291908051906020019092919050505081601281905550806013819055505050611a65806100726000396000f3fe608060405234801561001057600080fd5b506004361061014c5760003560e01c8063802dba9f116100c3578063c789cc541161007c578063c789cc5414610917578063dd936a5c14610951578063e11ada6c1461098b578063e25de2ab14610b4a578063e3cf144e14610b8e578063f595c48514610bd25761014c565b8063802dba9f146106b95780638fb326f2146106ed578063908d85f2146107d6578063913c744714610891578063b9172c7a146108af578063c49c8aaa146108e35761014c565b80634ba057cd116101155780634ba057cd146104be57806354cb1df4146104f257806355a3bc2f146105365780635b054f9b14610639578063697bc1f3146106575780637e2796661461069b5761014c565b806258b5e4146101515780630b5888a014610195578063106a7d9c14610264578063284f2d581461029e5780633c2e9530146103db575b600080fd5b6101936004803603602081101561016757600080fd5b81019080803573ffffffffffffffffffffffffffffffffffffffff169060200190929190505050610d0f565b005b610262600480360360608110156101ab57600080fd5b8101908080359060200190929190803590602001906401000000008111156101d257600080fd5b8201836020820111156101e457600080fd5b8035906020019184600183028401116401000000008311171561020657600080fd5b91908080601f016020809104026020016040519081016040528093929190818152602001838380828437600081840152601f19601f82011690508083019250505050505050919291929080359060200190929190505050610d53565b005b61029c6004803603604081101561027a57600080fd5b8101908080351515906020019092919080359060200190929190505050610e00565b005b6102a6610e87565b604051808d81526020018c815260200180602001806020018b151581526020018a815260200189151581526020018881526020018715158152602001868152602001851515815260200184815260200183810383528d818151815260200191508051906020019080838360005b8381101561032e578082015181840152602081019050610313565b50505050905090810190601f16801561035b5780820380516001836020036101000a031916815260200191505b5083810382528c818151815260200191508051906020019080838360005b83811015610394578082015181840152602081019050610379565b50505050905090810190601f1680156103c15780820380516001836020036101000a031916815260200191505b509e50505050505050505050505050505060405180910390f35b6104a8600480360360608110156103f157600080fd5b8101908080359060200190929190803590602001909291908035906020019064010000000081111561042257600080fd5b82018360208201111561043457600080fd5b8035906020019184600183028401116401000000008311171561045657600080fd5b91908080601f016020809104026020016040519081016040528093929190818152602001838380828437600081840152601f19601f820116905080830192505050505050509192919290505050611039565b6040518082815260200191505060405180910390f35b6104c6611050565b604051808273ffffffffffffffffffffffffffffffffffffffff16815260200191505060405180910390f35b6105346004803603606081101561050857600080fd5b810190808035906020019092919080359060200190929190803515159060200190929190505050611076565b005b6106236004803603608081101561054c57600080fd5b81019080803573ffffffffffffffffffffffffffffffffffffffff16906020019092919080359060200190929190803590602001909291908035906020019064010000000081111561059d57600080fd5b8201836020820111156105af57600080fd5b803590602001918460018302840111640100000000831117156105d157600080fd5b91908080601f016020809104026020016040519081016040528093929190818152602001838380828437600081840152601f19601f820116905080830192505050505050509192919290505050611120565b6040518082815260200191505060405180910390f35b610641611257565b6040518082815260200191505060405180910390f35b6106996004803603602081101561066d57600080fd5b81019080803573ffffffffffffffffffffffffffffffffffffffff16906020019092919050505061125d565b005b6106a36112a1565b6040518082815260200191505060405180910390f35b6106c16112a7565b604051808273ffffffffffffffffffffffffffffffffffffffff16815260200191505060405180910390f35b6107196004803603602081101561070357600080fd5b81019080803590602001909291905050506112cd565b604051808881526020018773ffffffffffffffffffffffffffffffffffffffff168152602001868152602001851515815260200184815260200183815260200180602001828103825283818151815260200191508051906020019080838360005b8381101561079557808201518184015260208101905061077a565b50505050905090810190601f1680156107c25780820380516001836020036101000a031916815260200191505b509850505050505050505060405180910390f35b61088f600480360360208110156107ec57600080fd5b810190808035906020019064010000000081111561080957600080fd5b82018360208201111561081b57600080fd5b8035906020019184600183028401116401000000008311171561083d57600080fd5b91908080601f016020809104026020016040519081016040528093929190818152602001838380828437600081840152601f19601f8201169050808301925050505050505091929192905050506113d4565b005b61089961144d565b6040518082815260200191505060405180910390f35b6108b7611453565b604051808273ffffffffffffffffffffffffffffffffffffffff16815260200191505060405180910390f35b6108eb611479565b604051808273ffffffffffffffffffffffffffffffffffffffff16815260200191505060405180910390f35b61094f6004803603604081101561092d57600080fd5b810190808035151590602001909291908035906020019092919050505061149f565b005b6109896004803603604081101561096757600080fd5b8101908080351515906020019092919080359060200190929190505050611526565b005b610b4860048036036101808110156109a257600080fd5b810190808035906020019092919080359060200190929190803590602001906401000000008111156109d357600080fd5b8201836020820111156109e557600080fd5b80359060200191846001830284011164010000000083111715610a0757600080fd5b91908080601f016020809104026020016040519081016040528093929190818152602001838380828437600081840152601f19601f82011690508083019250505050505050919291929080359060200190640100000000811115610a6a57600080fd5b820183602082011115610a7c57600080fd5b80359060200191846001830284011164010000000083111715610a9e57600080fd5b91908080601f016020809104026020016040519081016040528093929190818152602001838380828437600081840152601f19601f820116905080830192505050505050509192919290803515159060200190929190803590602001909291908035151590602001909291908035906020019092919080351515906020019092919080359060200190929190803515159060200190929190803590602001909291905050506115ad565b005b610b8c60048036036020811015610b6057600080fd5b81019080803573ffffffffffffffffffffffffffffffffffffffff169060200190929190505050611713565b005b610bd060048036036020811015610ba457600080fd5b81019080803573ffffffffffffffffffffffffffffffffffffffff169060200190929190505050611757565b005b610bda61179b565b604051808d81526020018c815260200180602001806020018b151581526020018a815260200189151581526020018881526020018715158152602001868152602001851515815260200184815260200183810383528d818151815260200191508051906020019080838360005b83811015610c62578082015181840152602081019050610c47565b50505050905090810190601f168015610c8f5780820380516001836020036101000a031916815260200191505b5083810382528c818151815260200191508051906020019080838360005b83811015610cc8578082015181840152602081019050610cad565b50505050905090810190601f168015610cf55780820380516001836020036101000a031916815260200191505b509e50505050505050505050505050505060405180910390f35b80600d60006101000a81548173ffffffffffffffffffffffffffffffffffffffff021916908373ffffffffffffffffffffffffffffffffffffffff16021790555050565b338073ffffffffffffffffffffffffffffffffffffffff16600e60009054906101000a900473ffffffffffffffffffffffffffffffffffffffff1673ffffffffffffffffffffffffffffffffffffffff1614610dae57600080fd5b836000600101819055508260006002019080519060200190610dd1929190611984565b50816000600501819055506001600060040160006101000a81548160ff02191690831515021790555050505050565b338073ffffffffffffffffffffffffffffffffffffffff16600f60009054906101000a900473ffffffffffffffffffffffffffffffffffffffff1673ffffffffffffffffffffffffffffffffffffffff1614610e5b57600080fd5b826000600a0160006101000a81548160ff021916908315150217905550816000600b0181905550505050565b6000806000015490806001015490806002018054600181600116156101000203166002900480601f016020809104026020016040519081016040528092919081815260200182805460018160011615610100020316600290048015610f2d5780601f10610f0257610100808354040283529160200191610f2d565b820191906000526020600020905b815481529060010190602001808311610f1057829003601f168201915b505050505090806003018054600181600116156101000203166002900480601f016020809104026020016040519081016040528092919081815260200182805460018160011615610100020316600290048015610fcb5780601f10610fa057610100808354040283529160200191610fcb565b820191906000526020600020905b815481529060010190602001808311610fae57829003601f168201915b5050505050908060040160009054906101000a900460ff16908060050154908060060160009054906101000a900460ff16908060070154908060080160009054906101000a900460ff169080600901549080600a0160009054906101000a900460ff169080600b015490508c565b600061104733858585611120565b90509392505050565b600e60009054906101000a900473ffffffffffffffffffffffffffffffffffffffff1681565b338073ffffffffffffffffffffffffffffffffffffffff16600e60009054906101000a900473ffffffffffffffffffffffffffffffffffffffff1673ffffffffffffffffffffffffffffffffffffffff16146110d157600080fd5b816011600086815260200190815260200160002060030160006101000a81548160ff02191690831515021790555082601160008681526020019081526020016000206005018190555050505050565b60006040518060e0016040528060105481526020018673ffffffffffffffffffffffffffffffffffffffff16815260200185815260200160001515815260200184815260200160008152602001838152506011600060105481526020019081526020016000206000820151816000015560208201518160010160006101000a81548173ffffffffffffffffffffffffffffffffffffffff021916908373ffffffffffffffffffffffffffffffffffffffff1602179055506040820151816002015560608201518160030160006101000a81548160ff0219169083151502179055506080820151816004015560a0820151816005015560c0820151816006019080519060200190611231929190611984565b509050506010600081548092919060010191905055506001601054039050949350505050565b60125481565b80600c60006101000a81548173ffffffffffffffffffffffffffffffffffffffff021916908373ffffffffffffffffffffffffffffffffffffffff16021790555050565b60135481565b600f60009054906101000a900473ffffffffffffffffffffffffffffffffffffffff1681565b60116020528060005260406000206000915090508060000154908060010160009054906101000a900473ffffffffffffffffffffffffffffffffffffffff16908060020154908060030160009054906101000a900460ff1690806004015490806005015490806006018054600181600116156101000203166002900480601f0160208091040260200160405190810160405280929190818152602001828054600181600116156101000203166002900480156113ca5780601f1061139f576101008083540402835291602001916113ca565b820191906000526020600020905b8154815290600101906020018083116113ad57829003601f168201915b5050505050905087565b338073ffffffffffffffffffffffffffffffffffffffff16600f60009054906101000a900473ffffffffffffffffffffffffffffffffffffffff1673ffffffffffffffffffffffffffffffffffffffff161461142f57600080fd5b8160006003019080519060200190611448929190611984565b505050565b60105481565b600d60009054906101000a900473ffffffffffffffffffffffffffffffffffffffff1681565b600c60009054906101000a900473ffffffffffffffffffffffffffffffffffffffff1681565b338073ffffffffffffffffffffffffffffffffffffffff16600d60009054906101000a900473ffffffffffffffffffffffffffffffffffffffff1673ffffffffffffffffffffffffffffffffffffffff16146114fa57600080fd5b82600060060160006101000a81548160ff02191690831515021790555081600060070181905550505050565b338073ffffffffffffffffffffffffffffffffffffffff16600c60009054906101000a900473ffffffffffffffffffffffffffffffffffffffff1673ffffffffffffffffffffffffffffffffffffffff161461158157600080fd5b82600060080160006101000a81548160ff02191690831515021790555081600060090181905550505050565b6040518061018001604052808d81526020018c81526020018b81526020018a81526020018915158152602001888152602001871515815260200186815260200185151581526020018481526020018315158152602001828152506000808201518160000155602082015181600101556040820151816002019080519060200190611638929190611984565b506060820151816003019080519060200190611655929190611984565b5060808201518160040160006101000a81548160ff02191690831515021790555060a0820151816005015560c08201518160060160006101000a81548160ff02191690831515021790555060e082015181600701556101008201518160080160006101000a81548160ff021916908315150217905550610120820151816009015561014082015181600a0160006101000a81548160ff02191690831515021790555061016082015181600b0155905050505050505050505050505050565b80600f60006101000a81548173ffffffffffffffffffffffffffffffffffffffff021916908373ffffffffffffffffffffffffffffffffffffffff16021790555050565b80600e60006101000a81548173ffffffffffffffffffffffffffffffffffffffff021916908373ffffffffffffffffffffffffffffffffffffffff16021790555050565b600080606080600080600080600080600080600080015460006001015460006002016000600301600060040160009054906101000a900460ff16600060050154600060060160009054906101000a900460ff16600060070154600060080160009054906101000a900460ff166000600901546000600a0160009054906101000a900460ff166000600b0154898054600181600116156101000203166002900480601f0160208091040260200160405190810160405280929190818152602001828054600181600116156101000203166002900480156118bb5780601f10611890576101008083540402835291602001916118bb565b820191906000526020600020905b81548152906001019060200180831161189e57829003601f168201915b50505050509950888054600181600116156101000203166002900480601f0160208091040260200160405190810160405280929190818152602001828054600181600116156101000203166002900480156119575780601f1061192c57610100808354040283529160200191611957565b820191906000526020600020905b81548152906001019060200180831161193a57829003601f168201915b505050505098509b509b509b509b509b509b509b509b509b509b509b509b50909192939495969798999a9b565b828054600181600116156101000203166002900490600052602060002090601f0160209004810192826119ba5760008555611a01565b82601f106119d357805160ff1916838001178555611a01565b82800160010185558215611a01579182015b82811115611a005782518255916020019190600101906119e5565b5b509050611a0e9190611a12565b5090565b5b80821115611a2b576000816000905550600101611a13565b509056fea2646970667358221220552927dc70e9f8f90246cd91cb0740af9ee0bdb3d19bcf701a7ad2538f0dded964736f6c63430007060033",
  "immutableReferences": {},
  "source": "// SPDX-License-Identifier: MIT\npragma solidity >=0.4.22 <0.9.0;\nimport \"./base/AdminRole.sol\";\nimport \"./base/ConsumerRole.sol\";\nimport \"./base/DistributorRole.sol\";\nimport \"./base/RetailerRole.sol\";\n\ncontract SupplyChain is  AdminRole, ConsumerRole, DistributorRole, RetailerRole{\n    uint256 public chainStartTime;\n    uint256 public chainEndTime;\n    constructor(uint256 _chainStartTime, uint256 _chainEndTime){\n        chainStartTime=_chainStartTime;\n        chainEndTime=_chainEndTime;\n    }\n}",
  "sourcePath": "/Users/yiulapsang/Desktop/workspace/blockchain/medicine-supply-chain/contracts/SupplyChain.sol",
  "compiler": {
    "name": "solc",
    "version": "0.7.6+commit.7338295f.Emscripten.clang"
  },
  "schemaVersion": "3.3.3",
  "updatedAt": "2021-03-26T01:48:00.227Z",
  "devdoc": {
    "kind": "dev",
    "methods": {},
    "version": 1
  },
  "userdoc": {
    "kind": "user",
    "methods": {},
    "version": 1
  }
}